{
	"contracts/VotingSystem.sol": {
		"VotingSystem": {
			"abi": [
				{
					"inputs": [],
					"stateMutability": "nonpayable",
					"type": "constructor"
				},
				{
					"anonymous": false,
					"inputs": [
						{
							"indexed": false,
							"internalType": "uint256",
							"name": "id",
							"type": "uint256"
						},
						{
							"indexed": false,
							"internalType": "string",
							"name": "name",
							"type": "string"
						}
					],
					"name": "CandidateAdded",
					"type": "event"
				},
				{
					"anonymous": false,
					"inputs": [
						{
							"indexed": true,
							"internalType": "address",
							"name": "oldOwner",
							"type": "address"
						},
						{
							"indexed": true,
							"internalType": "address",
							"name": "newOwner",
							"type": "address"
						}
					],
					"name": "OwnerSet",
					"type": "event"
				},
				{
					"anonymous": false,
					"inputs": [
						{
							"indexed": false,
							"internalType": "address",
							"name": "voter",
							"type": "address"
						},
						{
							"indexed": false,
							"internalType": "uint256",
							"name": "candidateId",
							"type": "uint256"
						}
					],
					"name": "Voted",
					"type": "event"
				},
				{
					"inputs": [
						{
							"internalType": "string",
							"name": "name",
							"type": "string"
						}
					],
					"name": "addCandidate",
					"outputs": [],
					"stateMutability": "nonpayable",
					"type": "function"
				},
				{
					"inputs": [
						{
							"internalType": "address",
							"name": "newOwner",
							"type": "address"
						}
					],
					"name": "changeOwner",
					"outputs": [],
					"stateMutability": "nonpayable",
					"type": "function"
				},
				{
					"inputs": [
						{
							"internalType": "uint256",
							"name": "candidateId",
							"type": "uint256"
						}
					],
					"name": "getCandidate",
					"outputs": [
						{
							"internalType": "string",
							"name": "name",
							"type": "string"
						},
						{
							"internalType": "uint256",
							"name": "voteCount",
							"type": "uint256"
						}
					],
					"stateMutability": "view",
					"type": "function"
				},
				{
					"inputs": [],
					"name": "getOwner",
					"outputs": [
						{
							"internalType": "address",
							"name": "",
							"type": "address"
						}
					],
					"stateMutability": "view",
					"type": "function"
				},
				{
					"inputs": [],
					"name": "getTotalCandidates",
					"outputs": [
						{
							"internalType": "uint256",
							"name": "",
							"type": "uint256"
						}
					],
					"stateMutability": "view",
					"type": "function"
				},
				{
					"inputs": [
						{
							"internalType": "uint256",
							"name": "candidateId",
							"type": "uint256"
						}
					],
					"name": "vote",
					"outputs": [],
					"stateMutability": "nonpayable",
					"type": "function"
				}
			],
			"devdoc": {
				"details": "This is where the magic happens! A decentralized voting system. We're inheriting from your awesome Owner contract to keep things tidy and secure. Only the real OG (Original Gangster, aka the owner) can add candidates.",
				"kind": "dev",
				"methods": {
					"addCandidate(string)": {
						"details": "Adding a new contender to the voting list! Only callable by the contract owner. Sorry, plebs! 😉",
						"params": {
							"name": "The name of the candidate you're adding. Use 'calldata' here because 'name' is an external function arg (coming from outside) and it's a complex type (string). Calldata is super gas-efficient for this!"
						}
					},
					"changeOwner(address)": {
						"details": "Change the boss! Only the current owner can transfer ownership.",
						"params": {
							"newOwner": "The address of the new boss."
						}
					},
					"constructor": {
						"details": "Constructor time! This runs once when you deploy the contract. It automatically makes the person who deploys it the contract owner thanks to the Owner contract we're inheriting from."
					},
					"getCandidate(uint256)": {
						"details": "Wanna see how a candidate is doing? Get their deets here. This is a 'view' function, meaning it doesn't change anything on the blockchain, so it's free to call! Gas fees? We don't know her.",
						"params": {
							"candidateId": "The ID of the candidate you're curious about."
						},
						"returns": {
							"name": "The candidate's name.",
							"voteCount": "Their current vote count."
						}
					},
					"getOwner()": {
						"details": "Who's the boss right now? Ask this function.",
						"returns": {
							"_0": "address The address of the current owner."
						}
					},
					"getTotalCandidates()": {
						"details": "How many candidates are in the running? This tells you. Another 'view' function, so it's free!",
						"returns": {
							"_0": "The total number of candidates added so far."
						}
					},
					"vote(uint256)": {
						"details": "Time to cast your vote! Choose your fighter! Anyone can call this, but you only get one shot. No double-dipping!",
						"params": {
							"candidateId": "The ID of the candidate you want to vote for."
						}
					}
				},
				"title": "VotingSystem",
				"version": 1
			},
			"evm": {
				"assembly": "    /* \"contracts/VotingSystem.sol\":479:6442  contract VotingSystem is Owner { // Inheriting from your Owner contract - looking good!\r... */\n  mstore(0x40, 0x80)\n    /* \"contracts/VotingSystem.sol\":2241:2488  constructor() Owner() {\r... */\n  callvalue\n  dup1\n  iszero\n  tag_1\n  jumpi\n  0x00\n  dup1\n  revert\ntag_1:\n  pop\n    /* \"contracts/Owner.sol\":1336:1346  msg.sender */\n  caller\n    /* \"contracts/Owner.sol\":1328:1333  owner */\n  0x00\n  dup1\n    /* \"contracts/Owner.sol\":1328:1346  owner = msg.sender */\n  0x0100\n  exp\n  dup2\n  sload\n  dup2\n  0xffffffffffffffffffffffffffffffffffffffff\n  mul\n  not\n  and\n  swap1\n  dup4\n  0xffffffffffffffffffffffffffffffffffffffff\n  and\n  mul\n  or\n  swap1\n  sstore\n  pop\n    /* \"contracts/Owner.sol\":1423:1428  owner */\n  0x00\n  dup1\n  sload\n  swap1\n  0x0100\n  exp\n  swap1\n  div\n  0xffffffffffffffffffffffffffffffffffffffff\n  and\n    /* \"contracts/Owner.sol\":1402:1429  OwnerSet(address(0), owner) */\n  0xffffffffffffffffffffffffffffffffffffffff\n  and\n    /* \"contracts/Owner.sol\":1419:1420  0 */\n  0x00\n    /* \"contracts/Owner.sol\":1402:1429  OwnerSet(address(0), owner) */\n  0xffffffffffffffffffffffffffffffffffffffff\n  and\n  0x342827c97908e5e2f71151c08502a66d44b6f758e3ac2f1de95f02eb95f0a735\n  mload(0x40)\n  mload(0x40)\n  dup1\n  swap2\n  sub\n  swap1\n  log3\n    /* \"contracts/VotingSystem.sol\":2452:2453  0 */\n  0x00\n    /* \"contracts/VotingSystem.sol\":2434:2449  nextCandidateId */\n  0x03\n    /* \"contracts/VotingSystem.sol\":2434:2453  nextCandidateId = 0 */\n  dup2\n  swap1\n  sstore\n  pop\n    /* \"contracts/VotingSystem.sol\":479:6442  contract VotingSystem is Owner { // Inheriting from your Owner contract - looking good!\r... */\n  dataSize(sub_0)\n  dup1\n  dataOffset(sub_0)\n  0x00\n  codecopy\n  0x00\n  return\nstop\n\nsub_0: assembly {\n        /* \"contracts/VotingSystem.sol\":479:6442  contract VotingSystem is Owner { // Inheriting from your Owner contract - looking good!\r... */\n      mstore(0x40, 0x80)\n      callvalue\n      dup1\n      iszero\n      tag_1\n      jumpi\n      0x00\n      dup1\n      revert\n    tag_1:\n      pop\n      jumpi(tag_2, lt(calldatasize, 0x04))\n      shr(0xe0, calldataload(0x00))\n      dup1\n      0x0121b93f\n      eq\n      tag_3\n      jumpi\n      dup1\n      0x0deb56ab\n      eq\n      tag_4\n      jumpi\n      dup1\n      0x35b8e820\n      eq\n      tag_5\n      jumpi\n      dup1\n      0x462e91ec\n      eq\n      tag_6\n      jumpi\n      dup1\n      0x893d20e8\n      eq\n      tag_7\n      jumpi\n      dup1\n      0xa6f9dae1\n      eq\n      tag_8\n      jumpi\n    tag_2:\n      0x00\n      dup1\n      revert\n        /* \"contracts/VotingSystem.sol\":3641:4705  function vote(uint candidateId) public {\r... */\n    tag_3:\n      tag_9\n      0x04\n      dup1\n      calldatasize\n      sub\n      dup2\n      add\n      swap1\n      tag_10\n      swap2\n      swap1\n      tag_11\n      jump\t// in\n    tag_10:\n      tag_12\n      jump\t// in\n    tag_9:\n      stop\n        /* \"contracts/VotingSystem.sol\":6275:6439  function getTotalCandidates() public view returns (uint) {\r... */\n    tag_4:\n      tag_13\n      tag_14\n      jump\t// in\n    tag_13:\n      mload(0x40)\n      tag_15\n      swap2\n      swap1\n      tag_16\n      jump\t// in\n    tag_15:\n      mload(0x40)\n      dup1\n      swap2\n      sub\n      swap1\n      return\n        /* \"contracts/VotingSystem.sol\":5118:6072  function getCandidate(uint candidateId) public view returns (string memory name, uint voteCount) {\r... */\n    tag_5:\n      tag_17\n      0x04\n      dup1\n      calldatasize\n      sub\n      dup2\n      add\n      swap1\n      tag_18\n      swap2\n      swap1\n      tag_11\n      jump\t// in\n    tag_18:\n      tag_19\n      jump\t// in\n    tag_17:\n      mload(0x40)\n      tag_20\n      swap3\n      swap2\n      swap1\n      tag_21\n      jump\t// in\n    tag_20:\n      mload(0x40)\n      dup1\n      swap2\n      sub\n      swap1\n      return\n        /* \"contracts/VotingSystem.sol\":2880:3408  function addCandidate(string calldata name) public isOwner {\r... */\n    tag_6:\n      tag_22\n      0x04\n      dup1\n      calldatasize\n      sub\n      dup2\n      add\n      swap1\n      tag_23\n      swap2\n      swap1\n      tag_24\n      jump\t// in\n    tag_23:\n      tag_25\n      jump\t// in\n    tag_22:\n      stop\n        /* \"contracts/Owner.sol\":2186:2317  function getOwner() external view returns (address) {... */\n    tag_7:\n      tag_26\n      tag_27\n      jump\t// in\n    tag_26:\n      mload(0x40)\n      tag_28\n      swap2\n      swap1\n      tag_29\n      jump\t// in\n    tag_28:\n      mload(0x40)\n      dup1\n      swap2\n      sub\n      swap1\n      return\n        /* \"contracts/Owner.sol\":1637:2050  function changeOwner(address newOwner) public isOwner { // Using the 'isOwner' VIP pass here!... */\n    tag_8:\n      tag_30\n      0x04\n      dup1\n      calldatasize\n      sub\n      dup2\n      add\n      swap1\n      tag_31\n      swap2\n      swap1\n      tag_32\n      jump\t// in\n    tag_31:\n      tag_33\n      jump\t// in\n    tag_30:\n      stop\n        /* \"contracts/VotingSystem.sol\":3641:4705  function vote(uint candidateId) public {\r... */\n    tag_12:\n        /* \"contracts/VotingSystem.sol\":3838:3844  voters */\n      0x02\n        /* \"contracts/VotingSystem.sol\":3838:3856  voters[msg.sender] */\n      0x00\n        /* \"contracts/VotingSystem.sol\":3845:3855  msg.sender */\n      caller\n        /* \"contracts/VotingSystem.sol\":3838:3856  voters[msg.sender] */\n      0xffffffffffffffffffffffffffffffffffffffff\n      and\n      0xffffffffffffffffffffffffffffffffffffffff\n      and\n      dup2\n      mstore\n      0x20\n      add\n      swap1\n      dup2\n      mstore\n      0x20\n      add\n      0x00\n      keccak256\n      0x00\n      swap1\n      sload\n      swap1\n      0x0100\n      exp\n      swap1\n      div\n      0xff\n      and\n        /* \"contracts/VotingSystem.sol\":3837:3856  !voters[msg.sender] */\n      iszero\n        /* \"contracts/VotingSystem.sol\":3829:3920  require(!voters[msg.sender], \"VotingSystem: Bruh, you already voted. One vote per person!\") */\n      tag_35\n      jumpi\n      mload(0x40)\n      0x08c379a000000000000000000000000000000000000000000000000000000000\n      dup2\n      mstore\n      0x04\n      add\n      tag_36\n      swap1\n      tag_37\n      jump\t// in\n    tag_36:\n      mload(0x40)\n      dup1\n      swap2\n      sub\n      swap1\n      revert\n    tag_35:\n        /* \"contracts/VotingSystem.sol\":4098:4113  nextCandidateId */\n      sload(0x03)\n        /* \"contracts/VotingSystem.sol\":4084:4095  candidateId */\n      dup2\n        /* \"contracts/VotingSystem.sol\":4084:4113  candidateId < nextCandidateId */\n      lt\n        /* \"contracts/VotingSystem.sol\":4076:4172  require(candidateId < nextCandidateId, \"VotingSystem: Invalid candidate ID. Who even is that? \") */\n      tag_38\n      jumpi\n      mload(0x40)\n      0x08c379a000000000000000000000000000000000000000000000000000000000\n      dup2\n      mstore\n      0x04\n      add\n      tag_39\n      swap1\n      tag_40\n      jump\t// in\n    tag_39:\n      mload(0x40)\n      dup1\n      swap2\n      sub\n      swap1\n      revert\n    tag_38:\n        /* \"contracts/VotingSystem.sol\":4382:4392  candidates */\n      0x01\n        /* \"contracts/VotingSystem.sol\":4382:4405  candidates[candidateId] */\n      0x00\n        /* \"contracts/VotingSystem.sol\":4393:4404  candidateId */\n      dup3\n        /* \"contracts/VotingSystem.sol\":4382:4405  candidates[candidateId] */\n      dup2\n      mstore\n      0x20\n      add\n      swap1\n      dup2\n      mstore\n      0x20\n      add\n      0x00\n      keccak256\n        /* \"contracts/VotingSystem.sol\":4382:4415  candidates[candidateId].voteCount */\n      0x02\n      add\n      0x00\n        /* \"contracts/VotingSystem.sol\":4382:4417  candidates[candidateId].voteCount++ */\n      dup2\n      sload\n      dup1\n      swap3\n      swap2\n      swap1\n      tag_41\n      swap1\n      tag_42\n      jump\t// in\n    tag_41:\n      swap2\n      swap1\n      pop\n      sstore\n      pop\n        /* \"contracts/VotingSystem.sol\":4589:4593  true */\n      0x01\n        /* \"contracts/VotingSystem.sol\":4568:4574  voters */\n      0x02\n        /* \"contracts/VotingSystem.sol\":4568:4586  voters[msg.sender] */\n      0x00\n        /* \"contracts/VotingSystem.sol\":4575:4585  msg.sender */\n      caller\n        /* \"contracts/VotingSystem.sol\":4568:4586  voters[msg.sender] */\n      0xffffffffffffffffffffffffffffffffffffffff\n      and\n      0xffffffffffffffffffffffffffffffffffffffff\n      and\n      dup2\n      mstore\n      0x20\n      add\n      swap1\n      dup2\n      mstore\n      0x20\n      add\n      0x00\n      keccak256\n      0x00\n        /* \"contracts/VotingSystem.sol\":4568:4593  voters[msg.sender] = true */\n      0x0100\n      exp\n      dup2\n      sload\n      dup2\n      0xff\n      mul\n      not\n      and\n      swap1\n      dup4\n      iszero\n      iszero\n      mul\n      or\n      swap1\n      sstore\n      pop\n        /* \"contracts/VotingSystem.sol\":4667:4697  Voted(msg.sender, candidateId) */\n      0x4d99b957a2bc29a30ebd96a7be8e68fe50a3c701db28a91436490b7d53870ca4\n        /* \"contracts/VotingSystem.sol\":4673:4683  msg.sender */\n      caller\n        /* \"contracts/VotingSystem.sol\":4685:4696  candidateId */\n      dup3\n        /* \"contracts/VotingSystem.sol\":4667:4697  Voted(msg.sender, candidateId) */\n      mload(0x40)\n      tag_43\n      swap3\n      swap2\n      swap1\n      tag_44\n      jump\t// in\n    tag_43:\n      mload(0x40)\n      dup1\n      swap2\n      sub\n      swap1\n      log1\n        /* \"contracts/VotingSystem.sol\":3641:4705  function vote(uint candidateId) public {\r... */\n      pop\n      jump\t// out\n        /* \"contracts/VotingSystem.sol\":6275:6439  function getTotalCandidates() public view returns (uint) {\r... */\n    tag_14:\n        /* \"contracts/VotingSystem.sol\":6326:6330  uint */\n      0x00\n        /* \"contracts/VotingSystem.sol\":6416:6431  nextCandidateId */\n      sload(0x03)\n        /* \"contracts/VotingSystem.sol\":6409:6431  return nextCandidateId */\n      swap1\n      pop\n        /* \"contracts/VotingSystem.sol\":6275:6439  function getTotalCandidates() public view returns (uint) {\r... */\n      swap1\n      jump\t// out\n        /* \"contracts/VotingSystem.sol\":5118:6072  function getCandidate(uint candidateId) public view returns (string memory name, uint voteCount) {\r... */\n    tag_19:\n        /* \"contracts/VotingSystem.sol\":5179:5197  string memory name */\n      0x60\n        /* \"contracts/VotingSystem.sol\":5199:5213  uint voteCount */\n      0x00\n        /* \"contracts/VotingSystem.sol\":5564:5579  nextCandidateId */\n      sload(0x03)\n        /* \"contracts/VotingSystem.sol\":5550:5561  candidateId */\n      dup4\n        /* \"contracts/VotingSystem.sol\":5550:5579  candidateId < nextCandidateId */\n      lt\n        /* \"contracts/VotingSystem.sol\":5542:5650  require(candidateId < nextCandidateId, \"VotingSystem: Invalid candidate ID. Still don't know who that is. \") */\n      tag_47\n      jumpi\n      mload(0x40)\n      0x08c379a000000000000000000000000000000000000000000000000000000000\n      dup2\n      mstore\n      0x04\n      add\n      tag_48\n      swap1\n      tag_49\n      jump\t// in\n    tag_48:\n      mload(0x40)\n      dup1\n      swap2\n      sub\n      swap1\n      revert\n    tag_47:\n        /* \"contracts/VotingSystem.sol\":5898:5925  Candidate storage candidate */\n      0x00\n        /* \"contracts/VotingSystem.sol\":5928:5938  candidates */\n      0x01\n        /* \"contracts/VotingSystem.sol\":5928:5951  candidates[candidateId] */\n      0x00\n        /* \"contracts/VotingSystem.sol\":5939:5950  candidateId */\n      dup6\n        /* \"contracts/VotingSystem.sol\":5928:5951  candidates[candidateId] */\n      dup2\n      mstore\n      0x20\n      add\n      swap1\n      dup2\n      mstore\n      0x20\n      add\n      0x00\n      keccak256\n        /* \"contracts/VotingSystem.sol\":5898:5951  Candidate storage candidate = candidates[candidateId] */\n      swap1\n      pop\n        /* \"contracts/VotingSystem.sol\":6028:6037  candidate */\n      dup1\n        /* \"contracts/VotingSystem.sol\":6028:6042  candidate.name */\n      0x01\n      add\n        /* \"contracts/VotingSystem.sol\":6044:6053  candidate */\n      dup2\n        /* \"contracts/VotingSystem.sol\":6044:6063  candidate.voteCount */\n      0x02\n      add\n      sload\n        /* \"contracts/VotingSystem.sol\":6020:6064  return (candidate.name, candidate.voteCount) */\n      dup2\n      dup1\n      sload\n      tag_50\n      swap1\n      tag_51\n      jump\t// in\n    tag_50:\n      dup1\n      0x1f\n      add\n      0x20\n      dup1\n      swap2\n      div\n      mul\n      0x20\n      add\n      mload(0x40)\n      swap1\n      dup2\n      add\n      0x40\n      mstore\n      dup1\n      swap3\n      swap2\n      swap1\n      dup2\n      dup2\n      mstore\n      0x20\n      add\n      dup3\n      dup1\n      sload\n      tag_52\n      swap1\n      tag_51\n      jump\t// in\n    tag_52:\n      dup1\n      iszero\n      tag_53\n      jumpi\n      dup1\n      0x1f\n      lt\n      tag_54\n      jumpi\n      0x0100\n      dup1\n      dup4\n      sload\n      div\n      mul\n      dup4\n      mstore\n      swap2\n      0x20\n      add\n      swap2\n      jump(tag_53)\n    tag_54:\n      dup3\n      add\n      swap2\n      swap1\n      0x00\n      mstore\n      keccak256(0x00, 0x20)\n      swap1\n    tag_55:\n      dup2\n      sload\n      dup2\n      mstore\n      swap1\n      0x01\n      add\n      swap1\n      0x20\n      add\n      dup1\n      dup4\n      gt\n      tag_55\n      jumpi\n      dup3\n      swap1\n      sub\n      0x1f\n      and\n      dup3\n      add\n      swap2\n    tag_53:\n      pop\n      pop\n      pop\n      pop\n      pop\n      swap2\n      pop\n      swap3\n      pop\n      swap3\n      pop\n      pop\n        /* \"contracts/VotingSystem.sol\":5118:6072  function getCandidate(uint candidateId) public view returns (string memory name, uint voteCount) {\r... */\n      swap2\n      pop\n      swap2\n      jump\t// out\n        /* \"contracts/VotingSystem.sol\":2880:3408  function addCandidate(string calldata name) public isOwner {\r... */\n    tag_25:\n        /* \"contracts/Owner.sol\":880:885  owner */\n      0x00\n      dup1\n      sload\n      swap1\n      0x0100\n      exp\n      swap1\n      div\n      0xffffffffffffffffffffffffffffffffffffffff\n      and\n        /* \"contracts/Owner.sol\":866:885  msg.sender == owner */\n      0xffffffffffffffffffffffffffffffffffffffff\n      and\n        /* \"contracts/Owner.sol\":866:876  msg.sender */\n      caller\n        /* \"contracts/Owner.sol\":866:885  msg.sender == owner */\n      0xffffffffffffffffffffffffffffffffffffffff\n      and\n      eq\n        /* \"contracts/Owner.sol\":858:916  require(msg.sender == owner, \"Nah, you're not the owner.\") */\n      tag_57\n      jumpi\n      mload(0x40)\n      0x08c379a000000000000000000000000000000000000000000000000000000000\n      dup2\n      mstore\n      0x04\n      add\n      tag_58\n      swap1\n      tag_59\n      jump\t// in\n    tag_58:\n      mload(0x40)\n      dup1\n      swap2\n      sub\n      swap1\n      revert\n    tag_57:\n        /* \"contracts/VotingSystem.sol\":3144:3179  Candidate(nextCandidateId, name, 0) */\n      mload(0x40)\n      dup1\n      0x60\n      add\n      0x40\n      mstore\n      dup1\n        /* \"contracts/VotingSystem.sol\":3154:3169  nextCandidateId */\n      sload(0x03)\n        /* \"contracts/VotingSystem.sol\":3144:3179  Candidate(nextCandidateId, name, 0) */\n      dup2\n      mstore\n      0x20\n      add\n        /* \"contracts/VotingSystem.sol\":3171:3175  name */\n      dup4\n      dup4\n        /* \"contracts/VotingSystem.sol\":3144:3179  Candidate(nextCandidateId, name, 0) */\n      dup1\n      dup1\n      0x1f\n      add\n      0x20\n      dup1\n      swap2\n      div\n      mul\n      0x20\n      add\n      mload(0x40)\n      swap1\n      dup2\n      add\n      0x40\n      mstore\n      dup1\n      swap4\n      swap3\n      swap2\n      swap1\n      dup2\n      dup2\n      mstore\n      0x20\n      add\n      dup4\n      dup4\n      dup1\n      dup3\n      dup5\n      calldatacopy\n      0x00\n      dup2\n      dup5\n      add\n      mstore\n      not(0x1f)\n      0x1f\n      dup3\n      add\n      and\n      swap1\n      pop\n      dup1\n      dup4\n      add\n      swap3\n      pop\n      pop\n      pop\n      pop\n      pop\n      pop\n      pop\n      dup2\n      mstore\n      0x20\n      add\n        /* \"contracts/VotingSystem.sol\":3177:3178  0 */\n      0x00\n        /* \"contracts/VotingSystem.sol\":3144:3179  Candidate(nextCandidateId, name, 0) */\n      dup2\n      mstore\n      pop\n        /* \"contracts/VotingSystem.sol\":3114:3124  candidates */\n      0x01\n        /* \"contracts/VotingSystem.sol\":3114:3141  candidates[nextCandidateId] */\n      0x00\n        /* \"contracts/VotingSystem.sol\":3125:3140  nextCandidateId */\n      sload(0x03)\n        /* \"contracts/VotingSystem.sol\":3114:3141  candidates[nextCandidateId] */\n      dup2\n      mstore\n      0x20\n      add\n      swap1\n      dup2\n      mstore\n      0x20\n      add\n      0x00\n      keccak256\n        /* \"contracts/VotingSystem.sol\":3114:3179  candidates[nextCandidateId] = Candidate(nextCandidateId, name, 0) */\n      0x00\n      dup3\n      add\n      mload\n      dup2\n      0x00\n      add\n      sstore\n      0x20\n      dup3\n      add\n      mload\n      dup2\n      0x01\n      add\n      swap1\n      dup1\n      mload\n      swap1\n      0x20\n      add\n      swap1\n      tag_61\n      swap3\n      swap2\n      swap1\n      tag_62\n      jump\t// in\n    tag_61:\n      pop\n      0x40\n      dup3\n      add\n      mload\n      dup2\n      0x02\n      add\n      sstore\n      swap1\n      pop\n      pop\n        /* \"contracts/VotingSystem.sol\":3260:3297  CandidateAdded(nextCandidateId, name) */\n      0xe83b2a43e7e82d975c8a0a6d2f045153c869e111136a34d1889ab7b598e396a3\n        /* \"contracts/VotingSystem.sol\":3275:3290  nextCandidateId */\n      sload(0x03)\n        /* \"contracts/VotingSystem.sol\":3292:3296  name */\n      dup4\n      dup4\n        /* \"contracts/VotingSystem.sol\":3260:3297  CandidateAdded(nextCandidateId, name) */\n      mload(0x40)\n      tag_63\n      swap4\n      swap3\n      swap2\n      swap1\n      tag_64\n      jump\t// in\n    tag_63:\n      mload(0x40)\n      dup1\n      swap2\n      sub\n      swap1\n      log1\n        /* \"contracts/VotingSystem.sol\":3383:3398  nextCandidateId */\n      0x03\n      0x00\n        /* \"contracts/VotingSystem.sol\":3383:3400  nextCandidateId++ */\n      dup2\n      sload\n      dup1\n      swap3\n      swap2\n      swap1\n      tag_65\n      swap1\n      tag_42\n      jump\t// in\n    tag_65:\n      swap2\n      swap1\n      pop\n      sstore\n      pop\n        /* \"contracts/VotingSystem.sol\":2880:3408  function addCandidate(string calldata name) public isOwner {\r... */\n      pop\n      pop\n      jump\t// out\n        /* \"contracts/Owner.sol\":2186:2317  function getOwner() external view returns (address) {... */\n    tag_27:\n        /* \"contracts/Owner.sol\":2229:2236  address */\n      0x00\n        /* \"contracts/Owner.sol\":2255:2260  owner */\n      dup1\n      0x00\n      swap1\n      sload\n      swap1\n      0x0100\n      exp\n      swap1\n      div\n      0xffffffffffffffffffffffffffffffffffffffff\n      and\n        /* \"contracts/Owner.sol\":2248:2260  return owner */\n      swap1\n      pop\n        /* \"contracts/Owner.sol\":2186:2317  function getOwner() external view returns (address) {... */\n      swap1\n      jump\t// out\n        /* \"contracts/Owner.sol\":1637:2050  function changeOwner(address newOwner) public isOwner { // Using the 'isOwner' VIP pass here!... */\n    tag_33:\n        /* \"contracts/Owner.sol\":880:885  owner */\n      0x00\n      dup1\n      sload\n      swap1\n      0x0100\n      exp\n      swap1\n      div\n      0xffffffffffffffffffffffffffffffffffffffff\n      and\n        /* \"contracts/Owner.sol\":866:885  msg.sender == owner */\n      0xffffffffffffffffffffffffffffffffffffffff\n      and\n        /* \"contracts/Owner.sol\":866:876  msg.sender */\n      caller\n        /* \"contracts/Owner.sol\":866:885  msg.sender == owner */\n      0xffffffffffffffffffffffffffffffffffffffff\n      and\n      eq\n        /* \"contracts/Owner.sol\":858:916  require(msg.sender == owner, \"Nah, you're not the owner.\") */\n      tag_68\n      jumpi\n      mload(0x40)\n      0x08c379a000000000000000000000000000000000000000000000000000000000\n      dup2\n      mstore\n      0x04\n      add\n      tag_69\n      swap1\n      tag_59\n      jump\t// in\n    tag_69:\n      mload(0x40)\n      dup1\n      swap2\n      sub\n      swap1\n      revert\n    tag_68:\n        /* \"contracts/Owner.sol\":1869:1870  0 */\n      0x00\n        /* \"contracts/Owner.sol\":1849:1871  newOwner != address(0) */\n      0xffffffffffffffffffffffffffffffffffffffff\n      and\n        /* \"contracts/Owner.sol\":1849:1857  newOwner */\n      dup2\n        /* \"contracts/Owner.sol\":1849:1871  newOwner != address(0) */\n      0xffffffffffffffffffffffffffffffffffffffff\n      and\n      eq\n      iszero\n        /* \"contracts/Owner.sol\":1841:1926  require(newOwner != address(0), \"Can't transfer ownership to the zero address, fam.\") */\n      tag_71\n      jumpi\n      mload(0x40)\n      0x08c379a000000000000000000000000000000000000000000000000000000000\n      dup2\n      mstore\n      0x04\n      add\n      tag_72\n      swap1\n      tag_73\n      jump\t// in\n    tag_72:\n      mload(0x40)\n      dup1\n      swap2\n      sub\n      swap1\n      revert\n    tag_71:\n        /* \"contracts/Owner.sol\":1957:1965  newOwner */\n      dup1\n        /* \"contracts/Owner.sol\":1941:1966  OwnerSet(owner, newOwner) */\n      0xffffffffffffffffffffffffffffffffffffffff\n      and\n        /* \"contracts/Owner.sol\":1950:1955  owner */\n      0x00\n      dup1\n      sload\n      swap1\n      0x0100\n      exp\n      swap1\n      div\n      0xffffffffffffffffffffffffffffffffffffffff\n      and\n        /* \"contracts/Owner.sol\":1941:1966  OwnerSet(owner, newOwner) */\n      0xffffffffffffffffffffffffffffffffffffffff\n      and\n      0x342827c97908e5e2f71151c08502a66d44b6f758e3ac2f1de95f02eb95f0a735\n      mload(0x40)\n      mload(0x40)\n      dup1\n      swap2\n      sub\n      swap1\n      log3\n        /* \"contracts/Owner.sol\":2008:2016  newOwner */\n      dup1\n        /* \"contracts/Owner.sol\":2000:2005  owner */\n      0x00\n      dup1\n        /* \"contracts/Owner.sol\":2000:2016  owner = newOwner */\n      0x0100\n      exp\n      dup2\n      sload\n      dup2\n      0xffffffffffffffffffffffffffffffffffffffff\n      mul\n      not\n      and\n      swap1\n      dup4\n      0xffffffffffffffffffffffffffffffffffffffff\n      and\n      mul\n      or\n      swap1\n      sstore\n      pop\n        /* \"contracts/Owner.sol\":1637:2050  function changeOwner(address newOwner) public isOwner { // Using the 'isOwner' VIP pass here!... */\n      pop\n      jump\t// out\n    tag_62:\n      dup3\n      dup1\n      sload\n      tag_74\n      swap1\n      tag_51\n      jump\t// in\n    tag_74:\n      swap1\n      0x00\n      mstore\n      keccak256(0x00, 0x20)\n      swap1\n      0x1f\n      add\n      0x20\n      swap1\n      div\n      dup2\n      add\n      swap3\n      dup3\n      tag_76\n      jumpi\n      0x00\n      dup6\n      sstore\n      jump(tag_75)\n    tag_76:\n      dup3\n      0x1f\n      lt\n      tag_77\n      jumpi\n      dup1\n      mload\n      not(0xff)\n      and\n      dup4\n      dup1\n      add\n      or\n      dup6\n      sstore\n      jump(tag_75)\n    tag_77:\n      dup3\n      dup1\n      add\n      0x01\n      add\n      dup6\n      sstore\n      dup3\n      iszero\n      tag_75\n      jumpi\n      swap2\n      dup3\n      add\n    tag_78:\n      dup3\n      dup2\n      gt\n      iszero\n      tag_79\n      jumpi\n      dup3\n      mload\n      dup3\n      sstore\n      swap2\n      0x20\n      add\n      swap2\n      swap1\n      0x01\n      add\n      swap1\n      jump(tag_78)\n    tag_79:\n    tag_75:\n      pop\n      swap1\n      pop\n      tag_80\n      swap2\n      swap1\n      tag_81\n      jump\t// in\n    tag_80:\n      pop\n      swap1\n      jump\t// out\n    tag_81:\n    tag_82:\n      dup1\n      dup3\n      gt\n      iszero\n      tag_83\n      jumpi\n      0x00\n      dup2\n      0x00\n      swap1\n      sstore\n      pop\n      0x01\n      add\n      jump(tag_82)\n    tag_83:\n      pop\n      swap1\n      jump\t// out\n        /* \"#utility.yul\":7:146   */\n    tag_85:\n      0x00\n        /* \"#utility.yul\":91:97   */\n      dup2\n        /* \"#utility.yul\":78:98   */\n      calldataload\n        /* \"#utility.yul\":69:98   */\n      swap1\n      pop\n        /* \"#utility.yul\":107:140   */\n      tag_87\n        /* \"#utility.yul\":134:139   */\n      dup2\n        /* \"#utility.yul\":107:140   */\n      tag_88\n      jump\t// in\n    tag_87:\n        /* \"#utility.yul\":59:146   */\n      swap3\n      swap2\n      pop\n      pop\n      jump\t// out\n        /* \"#utility.yul\":166:518   */\n    tag_89:\n      0x00\n      dup1\n        /* \"#utility.yul\":284:287   */\n      dup4\n        /* \"#utility.yul\":277:281   */\n      0x1f\n        /* \"#utility.yul\":269:275   */\n      dup5\n        /* \"#utility.yul\":265:282   */\n      add\n        /* \"#utility.yul\":261:288   */\n      slt\n        /* \"#utility.yul\":251:253   */\n      tag_91\n      jumpi\n        /* \"#utility.yul\":302:303   */\n      0x00\n        /* \"#utility.yul\":299:300   */\n      dup1\n        /* \"#utility.yul\":292:304   */\n      revert\n        /* \"#utility.yul\":251:253   */\n    tag_91:\n        /* \"#utility.yul\":338:344   */\n      dup3\n        /* \"#utility.yul\":325:345   */\n      calldataload\n        /* \"#utility.yul\":315:345   */\n      swap1\n      pop\n        /* \"#utility.yul\":368:386   */\n      0xffffffffffffffff\n        /* \"#utility.yul\":360:366   */\n      dup2\n        /* \"#utility.yul\":357:387   */\n      gt\n        /* \"#utility.yul\":354:356   */\n      iszero\n      tag_92\n      jumpi\n        /* \"#utility.yul\":400:401   */\n      0x00\n        /* \"#utility.yul\":397:398   */\n      dup1\n        /* \"#utility.yul\":390:402   */\n      revert\n        /* \"#utility.yul\":354:356   */\n    tag_92:\n        /* \"#utility.yul\":437:441   */\n      0x20\n        /* \"#utility.yul\":429:435   */\n      dup4\n        /* \"#utility.yul\":425:442   */\n      add\n        /* \"#utility.yul\":413:442   */\n      swap2\n      pop\n        /* \"#utility.yul\":491:494   */\n      dup4\n        /* \"#utility.yul\":483:487   */\n      0x01\n        /* \"#utility.yul\":475:481   */\n      dup3\n        /* \"#utility.yul\":471:488   */\n      mul\n        /* \"#utility.yul\":461:469   */\n      dup4\n        /* \"#utility.yul\":457:489   */\n      add\n        /* \"#utility.yul\":454:495   */\n      gt\n        /* \"#utility.yul\":451:453   */\n      iszero\n      tag_93\n      jumpi\n        /* \"#utility.yul\":508:509   */\n      0x00\n        /* \"#utility.yul\":505:506   */\n      dup1\n        /* \"#utility.yul\":498:510   */\n      revert\n        /* \"#utility.yul\":451:453   */\n    tag_93:\n        /* \"#utility.yul\":241:518   */\n      swap3\n      pop\n      swap3\n      swap1\n      pop\n      jump\t// out\n        /* \"#utility.yul\":524:663   */\n    tag_94:\n      0x00\n        /* \"#utility.yul\":608:614   */\n      dup2\n        /* \"#utility.yul\":595:615   */\n      calldataload\n        /* \"#utility.yul\":586:615   */\n      swap1\n      pop\n        /* \"#utility.yul\":624:657   */\n      tag_96\n        /* \"#utility.yul\":651:656   */\n      dup2\n        /* \"#utility.yul\":624:657   */\n      tag_97\n      jump\t// in\n    tag_96:\n        /* \"#utility.yul\":576:663   */\n      swap3\n      swap2\n      pop\n      pop\n      jump\t// out\n        /* \"#utility.yul\":669:931   */\n    tag_32:\n      0x00\n        /* \"#utility.yul\":777:779   */\n      0x20\n        /* \"#utility.yul\":765:774   */\n      dup3\n        /* \"#utility.yul\":756:763   */\n      dup5\n        /* \"#utility.yul\":752:775   */\n      sub\n        /* \"#utility.yul\":748:780   */\n      slt\n        /* \"#utility.yul\":745:747   */\n      iszero\n      tag_99\n      jumpi\n        /* \"#utility.yul\":793:794   */\n      0x00\n        /* \"#utility.yul\":790:791   */\n      dup1\n        /* \"#utility.yul\":783:795   */\n      revert\n        /* \"#utility.yul\":745:747   */\n    tag_99:\n        /* \"#utility.yul\":836:837   */\n      0x00\n        /* \"#utility.yul\":861:914   */\n      tag_100\n        /* \"#utility.yul\":906:913   */\n      dup5\n        /* \"#utility.yul\":897:903   */\n      dup3\n        /* \"#utility.yul\":886:895   */\n      dup6\n        /* \"#utility.yul\":882:904   */\n      add\n        /* \"#utility.yul\":861:914   */\n      tag_85\n      jump\t// in\n    tag_100:\n        /* \"#utility.yul\":851:914   */\n      swap2\n      pop\n        /* \"#utility.yul\":807:924   */\n      pop\n        /* \"#utility.yul\":735:931   */\n      swap3\n      swap2\n      pop\n      pop\n      jump\t// out\n        /* \"#utility.yul\":937:1332   */\n    tag_24:\n      0x00\n      dup1\n        /* \"#utility.yul\":1065:1067   */\n      0x20\n        /* \"#utility.yul\":1053:1062   */\n      dup4\n        /* \"#utility.yul\":1044:1051   */\n      dup6\n        /* \"#utility.yul\":1040:1063   */\n      sub\n        /* \"#utility.yul\":1036:1068   */\n      slt\n        /* \"#utility.yul\":1033:1035   */\n      iszero\n      tag_102\n      jumpi\n        /* \"#utility.yul\":1081:1082   */\n      0x00\n        /* \"#utility.yul\":1078:1079   */\n      dup1\n        /* \"#utility.yul\":1071:1083   */\n      revert\n        /* \"#utility.yul\":1033:1035   */\n    tag_102:\n        /* \"#utility.yul\":1152:1153   */\n      0x00\n        /* \"#utility.yul\":1141:1150   */\n      dup4\n        /* \"#utility.yul\":1137:1154   */\n      add\n        /* \"#utility.yul\":1124:1155   */\n      calldataload\n        /* \"#utility.yul\":1182:1200   */\n      0xffffffffffffffff\n        /* \"#utility.yul\":1174:1180   */\n      dup2\n        /* \"#utility.yul\":1171:1201   */\n      gt\n        /* \"#utility.yul\":1168:1170   */\n      iszero\n      tag_103\n      jumpi\n        /* \"#utility.yul\":1214:1215   */\n      0x00\n        /* \"#utility.yul\":1211:1212   */\n      dup1\n        /* \"#utility.yul\":1204:1216   */\n      revert\n        /* \"#utility.yul\":1168:1170   */\n    tag_103:\n        /* \"#utility.yul\":1250:1315   */\n      tag_104\n        /* \"#utility.yul\":1307:1314   */\n      dup6\n        /* \"#utility.yul\":1298:1304   */\n      dup3\n        /* \"#utility.yul\":1287:1296   */\n      dup7\n        /* \"#utility.yul\":1283:1305   */\n      add\n        /* \"#utility.yul\":1250:1315   */\n      tag_89\n      jump\t// in\n    tag_104:\n        /* \"#utility.yul\":1232:1315   */\n      swap3\n      pop\n      swap3\n      pop\n        /* \"#utility.yul\":1095:1325   */\n      pop\n        /* \"#utility.yul\":1023:1332   */\n      swap3\n      pop\n      swap3\n      swap1\n      pop\n      jump\t// out\n        /* \"#utility.yul\":1338:1600   */\n    tag_11:\n      0x00\n        /* \"#utility.yul\":1446:1448   */\n      0x20\n        /* \"#utility.yul\":1434:1443   */\n      dup3\n        /* \"#utility.yul\":1425:1432   */\n      dup5\n        /* \"#utility.yul\":1421:1444   */\n      sub\n        /* \"#utility.yul\":1417:1449   */\n      slt\n        /* \"#utility.yul\":1414:1416   */\n      iszero\n      tag_106\n      jumpi\n        /* \"#utility.yul\":1462:1463   */\n      0x00\n        /* \"#utility.yul\":1459:1460   */\n      dup1\n        /* \"#utility.yul\":1452:1464   */\n      revert\n        /* \"#utility.yul\":1414:1416   */\n    tag_106:\n        /* \"#utility.yul\":1505:1506   */\n      0x00\n        /* \"#utility.yul\":1530:1583   */\n      tag_107\n        /* \"#utility.yul\":1575:1582   */\n      dup5\n        /* \"#utility.yul\":1566:1572   */\n      dup3\n        /* \"#utility.yul\":1555:1564   */\n      dup6\n        /* \"#utility.yul\":1551:1573   */\n      add\n        /* \"#utility.yul\":1530:1583   */\n      tag_94\n      jump\t// in\n    tag_107:\n        /* \"#utility.yul\":1520:1583   */\n      swap2\n      pop\n        /* \"#utility.yul\":1476:1593   */\n      pop\n        /* \"#utility.yul\":1404:1600   */\n      swap3\n      swap2\n      pop\n      pop\n      jump\t// out\n        /* \"#utility.yul\":1606:1724   */\n    tag_108:\n        /* \"#utility.yul\":1693:1717   */\n      tag_110\n        /* \"#utility.yul\":1711:1716   */\n      dup2\n        /* \"#utility.yul\":1693:1717   */\n      tag_111\n      jump\t// in\n    tag_110:\n        /* \"#utility.yul\":1688:1691   */\n      dup3\n        /* \"#utility.yul\":1681:1718   */\n      mstore\n        /* \"#utility.yul\":1671:1724   */\n      pop\n      pop\n      jump\t// out\n        /* \"#utility.yul\":1754:2058   */\n    tag_112:\n      0x00\n        /* \"#utility.yul\":1873:1944   */\n      tag_114\n        /* \"#utility.yul\":1937:1943   */\n      dup4\n        /* \"#utility.yul\":1932:1935   */\n      dup6\n        /* \"#utility.yul\":1873:1944   */\n      tag_115\n      jump\t// in\n    tag_114:\n        /* \"#utility.yul\":1866:1944   */\n      swap4\n      pop\n        /* \"#utility.yul\":1954:1997   */\n      tag_116\n        /* \"#utility.yul\":1990:1996   */\n      dup4\n        /* \"#utility.yul\":1985:1988   */\n      dup6\n        /* \"#utility.yul\":1978:1983   */\n      dup5\n        /* \"#utility.yul\":1954:1997   */\n      tag_117\n      jump\t// in\n    tag_116:\n        /* \"#utility.yul\":2022:2051   */\n      tag_118\n        /* \"#utility.yul\":2044:2050   */\n      dup4\n        /* \"#utility.yul\":2022:2051   */\n      tag_119\n      jump\t// in\n    tag_118:\n        /* \"#utility.yul\":2017:2020   */\n      dup5\n        /* \"#utility.yul\":2013:2052   */\n      add\n        /* \"#utility.yul\":2006:2052   */\n      swap1\n      pop\n        /* \"#utility.yul\":1856:2058   */\n      swap4\n      swap3\n      pop\n      pop\n      pop\n      jump\t// out\n        /* \"#utility.yul\":2064:2428   */\n    tag_120:\n      0x00\n        /* \"#utility.yul\":2180:2219   */\n      tag_122\n        /* \"#utility.yul\":2213:2218   */\n      dup3\n        /* \"#utility.yul\":2180:2219   */\n      tag_123\n      jump\t// in\n    tag_122:\n        /* \"#utility.yul\":2235:2306   */\n      tag_124\n        /* \"#utility.yul\":2299:2305   */\n      dup2\n        /* \"#utility.yul\":2294:2297   */\n      dup6\n        /* \"#utility.yul\":2235:2306   */\n      tag_115\n      jump\t// in\n    tag_124:\n        /* \"#utility.yul\":2228:2306   */\n      swap4\n      pop\n        /* \"#utility.yul\":2315:2367   */\n      tag_125\n        /* \"#utility.yul\":2360:2366   */\n      dup2\n        /* \"#utility.yul\":2355:2358   */\n      dup6\n        /* \"#utility.yul\":2348:2352   */\n      0x20\n        /* \"#utility.yul\":2341:2346   */\n      dup7\n        /* \"#utility.yul\":2337:2353   */\n      add\n        /* \"#utility.yul\":2315:2367   */\n      tag_126\n      jump\t// in\n    tag_125:\n        /* \"#utility.yul\":2392:2421   */\n      tag_127\n        /* \"#utility.yul\":2414:2420   */\n      dup2\n        /* \"#utility.yul\":2392:2421   */\n      tag_119\n      jump\t// in\n    tag_127:\n        /* \"#utility.yul\":2387:2390   */\n      dup5\n        /* \"#utility.yul\":2383:2422   */\n      add\n        /* \"#utility.yul\":2376:2422   */\n      swap2\n      pop\n        /* \"#utility.yul\":2156:2428   */\n      pop\n      swap3\n      swap2\n      pop\n      pop\n      jump\t// out\n        /* \"#utility.yul\":2434:2816   */\n    tag_128:\n      0x00\n        /* \"#utility.yul\":2597:2664   */\n      tag_130\n        /* \"#utility.yul\":2661:2663   */\n      0x32\n        /* \"#utility.yul\":2656:2659   */\n      dup4\n        /* \"#utility.yul\":2597:2664   */\n      tag_115\n      jump\t// in\n    tag_130:\n        /* \"#utility.yul\":2590:2664   */\n      swap2\n      pop\n        /* \"#utility.yul\":2694:2728   */\n      0x43616e2774207472616e73666572206f776e65727368697020746f2074686520\n        /* \"#utility.yul\":2690:2691   */\n      0x00\n        /* \"#utility.yul\":2685:2688   */\n      dup4\n        /* \"#utility.yul\":2681:2692   */\n      add\n        /* \"#utility.yul\":2674:2729   */\n      mstore\n        /* \"#utility.yul\":2760:2780   */\n      0x7a65726f20616464726573732c2066616d2e0000000000000000000000000000\n        /* \"#utility.yul\":2755:2757   */\n      0x20\n        /* \"#utility.yul\":2750:2753   */\n      dup4\n        /* \"#utility.yul\":2746:2758   */\n      add\n        /* \"#utility.yul\":2739:2781   */\n      mstore\n        /* \"#utility.yul\":2807:2809   */\n      0x40\n        /* \"#utility.yul\":2802:2805   */\n      dup3\n        /* \"#utility.yul\":2798:2810   */\n      add\n        /* \"#utility.yul\":2791:2810   */\n      swap1\n      pop\n        /* \"#utility.yul\":2580:2816   */\n      swap2\n      swap1\n      pop\n      jump\t// out\n        /* \"#utility.yul\":2822:3254   */\n    tag_131:\n      0x00\n        /* \"#utility.yul\":2985:3052   */\n      tag_133\n        /* \"#utility.yul\":3049:3051   */\n      0x42\n        /* \"#utility.yul\":3044:3047   */\n      dup4\n        /* \"#utility.yul\":2985:3052   */\n      tag_115\n      jump\t// in\n    tag_133:\n        /* \"#utility.yul\":2978:3052   */\n      swap2\n      pop\n        /* \"#utility.yul\":3082:3116   */\n      0x566f74696e6753797374656d3a20496e76616c69642063616e64696461746520\n        /* \"#utility.yul\":3078:3079   */\n      0x00\n        /* \"#utility.yul\":3073:3076   */\n      dup4\n        /* \"#utility.yul\":3069:3080   */\n      add\n        /* \"#utility.yul\":3062:3117   */\n      mstore\n        /* \"#utility.yul\":3148:3182   */\n      0x49442e205374696c6c20646f6e2774206b6e6f772077686f2074686174206973\n        /* \"#utility.yul\":3143:3145   */\n      0x20\n        /* \"#utility.yul\":3138:3141   */\n      dup4\n        /* \"#utility.yul\":3134:3146   */\n      add\n        /* \"#utility.yul\":3127:3183   */\n      mstore\n        /* \"#utility.yul\":3214:3218   */\n      0x2e20000000000000000000000000000000000000000000000000000000000000\n        /* \"#utility.yul\":3209:3211   */\n      0x40\n        /* \"#utility.yul\":3204:3207   */\n      dup4\n        /* \"#utility.yul\":3200:3212   */\n      add\n        /* \"#utility.yul\":3193:3219   */\n      mstore\n        /* \"#utility.yul\":3245:3247   */\n      0x60\n        /* \"#utility.yul\":3240:3243   */\n      dup3\n        /* \"#utility.yul\":3236:3248   */\n      add\n        /* \"#utility.yul\":3229:3248   */\n      swap1\n      pop\n        /* \"#utility.yul\":2968:3254   */\n      swap2\n      swap1\n      pop\n      jump\t// out\n        /* \"#utility.yul\":3260:3651   */\n    tag_134:\n      0x00\n        /* \"#utility.yul\":3423:3490   */\n      tag_136\n        /* \"#utility.yul\":3487:3489   */\n      0x3b\n        /* \"#utility.yul\":3482:3485   */\n      dup4\n        /* \"#utility.yul\":3423:3490   */\n      tag_115\n      jump\t// in\n    tag_136:\n        /* \"#utility.yul\":3416:3490   */\n      swap2\n      pop\n        /* \"#utility.yul\":3520:3554   */\n      0x566f74696e6753797374656d3a20427275682c20796f7520616c726561647920\n        /* \"#utility.yul\":3516:3517   */\n      0x00\n        /* \"#utility.yul\":3511:3514   */\n      dup4\n        /* \"#utility.yul\":3507:3518   */\n      add\n        /* \"#utility.yul\":3500:3555   */\n      mstore\n        /* \"#utility.yul\":3586:3615   */\n      0x766f7465642e204f6e6520766f74652070657220706572736f6e210000000000\n        /* \"#utility.yul\":3581:3583   */\n      0x20\n        /* \"#utility.yul\":3576:3579   */\n      dup4\n        /* \"#utility.yul\":3572:3584   */\n      add\n        /* \"#utility.yul\":3565:3616   */\n      mstore\n        /* \"#utility.yul\":3642:3644   */\n      0x40\n        /* \"#utility.yul\":3637:3640   */\n      dup3\n        /* \"#utility.yul\":3633:3645   */\n      add\n        /* \"#utility.yul\":3626:3645   */\n      swap1\n      pop\n        /* \"#utility.yul\":3406:3651   */\n      swap2\n      swap1\n      pop\n      jump\t// out\n        /* \"#utility.yul\":3657:3981   */\n    tag_137:\n      0x00\n        /* \"#utility.yul\":3820:3887   */\n      tag_139\n        /* \"#utility.yul\":3884:3886   */\n      0x1a\n        /* \"#utility.yul\":3879:3882   */\n      dup4\n        /* \"#utility.yul\":3820:3887   */\n      tag_115\n      jump\t// in\n    tag_139:\n        /* \"#utility.yul\":3813:3887   */\n      swap2\n      pop\n        /* \"#utility.yul\":3917:3945   */\n      0x4e61682c20796f75277265206e6f7420746865206f776e65722e000000000000\n        /* \"#utility.yul\":3913:3914   */\n      0x00\n        /* \"#utility.yul\":3908:3911   */\n      dup4\n        /* \"#utility.yul\":3904:3915   */\n      add\n        /* \"#utility.yul\":3897:3946   */\n      mstore\n        /* \"#utility.yul\":3972:3974   */\n      0x20\n        /* \"#utility.yul\":3967:3970   */\n      dup3\n        /* \"#utility.yul\":3963:3975   */\n      add\n        /* \"#utility.yul\":3956:3975   */\n      swap1\n      pop\n        /* \"#utility.yul\":3803:3981   */\n      swap2\n      swap1\n      pop\n      jump\t// out\n        /* \"#utility.yul\":3987:4373   */\n    tag_140:\n      0x00\n        /* \"#utility.yul\":4150:4217   */\n      tag_142\n        /* \"#utility.yul\":4214:4216   */\n      0x36\n        /* \"#utility.yul\":4209:4212   */\n      dup4\n        /* \"#utility.yul\":4150:4217   */\n      tag_115\n      jump\t// in\n    tag_142:\n        /* \"#utility.yul\":4143:4217   */\n      swap2\n      pop\n        /* \"#utility.yul\":4247:4281   */\n      0x566f74696e6753797374656d3a20496e76616c69642063616e64696461746520\n        /* \"#utility.yul\":4243:4244   */\n      0x00\n        /* \"#utility.yul\":4238:4241   */\n      dup4\n        /* \"#utility.yul\":4234:4245   */\n      add\n        /* \"#utility.yul\":4227:4282   */\n      mstore\n        /* \"#utility.yul\":4313:4337   */\n      0x49442e2057686f206576656e20697320746861743f2000000000000000000000\n        /* \"#utility.yul\":4308:4310   */\n      0x20\n        /* \"#utility.yul\":4303:4306   */\n      dup4\n        /* \"#utility.yul\":4299:4311   */\n      add\n        /* \"#utility.yul\":4292:4338   */\n      mstore\n        /* \"#utility.yul\":4364:4366   */\n      0x40\n        /* \"#utility.yul\":4359:4362   */\n      dup3\n        /* \"#utility.yul\":4355:4367   */\n      add\n        /* \"#utility.yul\":4348:4367   */\n      swap1\n      pop\n        /* \"#utility.yul\":4133:4373   */\n      swap2\n      swap1\n      pop\n      jump\t// out\n        /* \"#utility.yul\":4379:4497   */\n    tag_143:\n        /* \"#utility.yul\":4466:4490   */\n      tag_145\n        /* \"#utility.yul\":4484:4489   */\n      dup2\n        /* \"#utility.yul\":4466:4490   */\n      tag_146\n      jump\t// in\n    tag_145:\n        /* \"#utility.yul\":4461:4464   */\n      dup3\n        /* \"#utility.yul\":4454:4491   */\n      mstore\n        /* \"#utility.yul\":4444:4497   */\n      pop\n      pop\n      jump\t// out\n        /* \"#utility.yul\":4503:4725   */\n    tag_29:\n      0x00\n        /* \"#utility.yul\":4634:4636   */\n      0x20\n        /* \"#utility.yul\":4623:4632   */\n      dup3\n        /* \"#utility.yul\":4619:4637   */\n      add\n        /* \"#utility.yul\":4611:4637   */\n      swap1\n      pop\n        /* \"#utility.yul\":4647:4718   */\n      tag_148\n        /* \"#utility.yul\":4715:4716   */\n      0x00\n        /* \"#utility.yul\":4704:4713   */\n      dup4\n        /* \"#utility.yul\":4700:4717   */\n      add\n        /* \"#utility.yul\":4691:4697   */\n      dup5\n        /* \"#utility.yul\":4647:4718   */\n      tag_108\n      jump\t// in\n    tag_148:\n        /* \"#utility.yul\":4601:4725   */\n      swap3\n      swap2\n      pop\n      pop\n      jump\t// out\n        /* \"#utility.yul\":4731:5063   */\n    tag_44:\n      0x00\n        /* \"#utility.yul\":4890:4892   */\n      0x40\n        /* \"#utility.yul\":4879:4888   */\n      dup3\n        /* \"#utility.yul\":4875:4893   */\n      add\n        /* \"#utility.yul\":4867:4893   */\n      swap1\n      pop\n        /* \"#utility.yul\":4903:4974   */\n      tag_150\n        /* \"#utility.yul\":4971:4972   */\n      0x00\n        /* \"#utility.yul\":4960:4969   */\n      dup4\n        /* \"#utility.yul\":4956:4973   */\n      add\n        /* \"#utility.yul\":4947:4953   */\n      dup6\n        /* \"#utility.yul\":4903:4974   */\n      tag_108\n      jump\t// in\n    tag_150:\n        /* \"#utility.yul\":4984:5056   */\n      tag_151\n        /* \"#utility.yul\":5052:5054   */\n      0x20\n        /* \"#utility.yul\":5041:5050   */\n      dup4\n        /* \"#utility.yul\":5037:5055   */\n      add\n        /* \"#utility.yul\":5028:5034   */\n      dup5\n        /* \"#utility.yul\":4984:5056   */\n      tag_143\n      jump\t// in\n    tag_151:\n        /* \"#utility.yul\":4857:5063   */\n      swap4\n      swap3\n      pop\n      pop\n      pop\n      jump\t// out\n        /* \"#utility.yul\":5069:5492   */\n    tag_21:\n      0x00\n        /* \"#utility.yul\":5248:5250   */\n      0x40\n        /* \"#utility.yul\":5237:5246   */\n      dup3\n        /* \"#utility.yul\":5233:5251   */\n      add\n        /* \"#utility.yul\":5225:5251   */\n      swap1\n      pop\n        /* \"#utility.yul\":5297:5306   */\n      dup2\n        /* \"#utility.yul\":5291:5295   */\n      dup2\n        /* \"#utility.yul\":5287:5307   */\n      sub\n        /* \"#utility.yul\":5283:5284   */\n      0x00\n        /* \"#utility.yul\":5272:5281   */\n      dup4\n        /* \"#utility.yul\":5268:5285   */\n      add\n        /* \"#utility.yul\":5261:5308   */\n      mstore\n        /* \"#utility.yul\":5325:5403   */\n      tag_153\n        /* \"#utility.yul\":5398:5402   */\n      dup2\n        /* \"#utility.yul\":5389:5395   */\n      dup6\n        /* \"#utility.yul\":5325:5403   */\n      tag_120\n      jump\t// in\n    tag_153:\n        /* \"#utility.yul\":5317:5403   */\n      swap1\n      pop\n        /* \"#utility.yul\":5413:5485   */\n      tag_154\n        /* \"#utility.yul\":5481:5483   */\n      0x20\n        /* \"#utility.yul\":5470:5479   */\n      dup4\n        /* \"#utility.yul\":5466:5484   */\n      add\n        /* \"#utility.yul\":5457:5463   */\n      dup5\n        /* \"#utility.yul\":5413:5485   */\n      tag_143\n      jump\t// in\n    tag_154:\n        /* \"#utility.yul\":5215:5492   */\n      swap4\n      swap3\n      pop\n      pop\n      pop\n      jump\t// out\n        /* \"#utility.yul\":5498:5917   */\n    tag_73:\n      0x00\n        /* \"#utility.yul\":5702:5704   */\n      0x20\n        /* \"#utility.yul\":5691:5700   */\n      dup3\n        /* \"#utility.yul\":5687:5705   */\n      add\n        /* \"#utility.yul\":5679:5705   */\n      swap1\n      pop\n        /* \"#utility.yul\":5751:5760   */\n      dup2\n        /* \"#utility.yul\":5745:5749   */\n      dup2\n        /* \"#utility.yul\":5741:5761   */\n      sub\n        /* \"#utility.yul\":5737:5738   */\n      0x00\n        /* \"#utility.yul\":5726:5735   */\n      dup4\n        /* \"#utility.yul\":5722:5739   */\n      add\n        /* \"#utility.yul\":5715:5762   */\n      mstore\n        /* \"#utility.yul\":5779:5910   */\n      tag_156\n        /* \"#utility.yul\":5905:5909   */\n      dup2\n        /* \"#utility.yul\":5779:5910   */\n      tag_128\n      jump\t// in\n    tag_156:\n        /* \"#utility.yul\":5771:5910   */\n      swap1\n      pop\n        /* \"#utility.yul\":5669:5917   */\n      swap2\n      swap1\n      pop\n      jump\t// out\n        /* \"#utility.yul\":5923:6342   */\n    tag_49:\n      0x00\n        /* \"#utility.yul\":6127:6129   */\n      0x20\n        /* \"#utility.yul\":6116:6125   */\n      dup3\n        /* \"#utility.yul\":6112:6130   */\n      add\n        /* \"#utility.yul\":6104:6130   */\n      swap1\n      pop\n        /* \"#utility.yul\":6176:6185   */\n      dup2\n        /* \"#utility.yul\":6170:6174   */\n      dup2\n        /* \"#utility.yul\":6166:6186   */\n      sub\n        /* \"#utility.yul\":6162:6163   */\n      0x00\n        /* \"#utility.yul\":6151:6160   */\n      dup4\n        /* \"#utility.yul\":6147:6164   */\n      add\n        /* \"#utility.yul\":6140:6187   */\n      mstore\n        /* \"#utility.yul\":6204:6335   */\n      tag_158\n        /* \"#utility.yul\":6330:6334   */\n      dup2\n        /* \"#utility.yul\":6204:6335   */\n      tag_131\n      jump\t// in\n    tag_158:\n        /* \"#utility.yul\":6196:6335   */\n      swap1\n      pop\n        /* \"#utility.yul\":6094:6342   */\n      swap2\n      swap1\n      pop\n      jump\t// out\n        /* \"#utility.yul\":6348:6767   */\n    tag_37:\n      0x00\n        /* \"#utility.yul\":6552:6554   */\n      0x20\n        /* \"#utility.yul\":6541:6550   */\n      dup3\n        /* \"#utility.yul\":6537:6555   */\n      add\n        /* \"#utility.yul\":6529:6555   */\n      swap1\n      pop\n        /* \"#utility.yul\":6601:6610   */\n      dup2\n        /* \"#utility.yul\":6595:6599   */\n      dup2\n        /* \"#utility.yul\":6591:6611   */\n      sub\n        /* \"#utility.yul\":6587:6588   */\n      0x00\n        /* \"#utility.yul\":6576:6585   */\n      dup4\n        /* \"#utility.yul\":6572:6589   */\n      add\n        /* \"#utility.yul\":6565:6612   */\n      mstore\n        /* \"#utility.yul\":6629:6760   */\n      tag_160\n        /* \"#utility.yul\":6755:6759   */\n      dup2\n        /* \"#utility.yul\":6629:6760   */\n      tag_134\n      jump\t// in\n    tag_160:\n        /* \"#utility.yul\":6621:6760   */\n      swap1\n      pop\n        /* \"#utility.yul\":6519:6767   */\n      swap2\n      swap1\n      pop\n      jump\t// out\n        /* \"#utility.yul\":6773:7192   */\n    tag_59:\n      0x00\n        /* \"#utility.yul\":6977:6979   */\n      0x20\n        /* \"#utility.yul\":6966:6975   */\n      dup3\n        /* \"#utility.yul\":6962:6980   */\n      add\n        /* \"#utility.yul\":6954:6980   */\n      swap1\n      pop\n        /* \"#utility.yul\":7026:7035   */\n      dup2\n        /* \"#utility.yul\":7020:7024   */\n      dup2\n        /* \"#utility.yul\":7016:7036   */\n      sub\n        /* \"#utility.yul\":7012:7013   */\n      0x00\n        /* \"#utility.yul\":7001:7010   */\n      dup4\n        /* \"#utility.yul\":6997:7014   */\n      add\n        /* \"#utility.yul\":6990:7037   */\n      mstore\n        /* \"#utility.yul\":7054:7185   */\n      tag_162\n        /* \"#utility.yul\":7180:7184   */\n      dup2\n        /* \"#utility.yul\":7054:7185   */\n      tag_137\n      jump\t// in\n    tag_162:\n        /* \"#utility.yul\":7046:7185   */\n      swap1\n      pop\n        /* \"#utility.yul\":6944:7192   */\n      swap2\n      swap1\n      pop\n      jump\t// out\n        /* \"#utility.yul\":7198:7617   */\n    tag_40:\n      0x00\n        /* \"#utility.yul\":7402:7404   */\n      0x20\n        /* \"#utility.yul\":7391:7400   */\n      dup3\n        /* \"#utility.yul\":7387:7405   */\n      add\n        /* \"#utility.yul\":7379:7405   */\n      swap1\n      pop\n        /* \"#utility.yul\":7451:7460   */\n      dup2\n        /* \"#utility.yul\":7445:7449   */\n      dup2\n        /* \"#utility.yul\":7441:7461   */\n      sub\n        /* \"#utility.yul\":7437:7438   */\n      0x00\n        /* \"#utility.yul\":7426:7435   */\n      dup4\n        /* \"#utility.yul\":7422:7439   */\n      add\n        /* \"#utility.yul\":7415:7462   */\n      mstore\n        /* \"#utility.yul\":7479:7610   */\n      tag_164\n        /* \"#utility.yul\":7605:7609   */\n      dup2\n        /* \"#utility.yul\":7479:7610   */\n      tag_140\n      jump\t// in\n    tag_164:\n        /* \"#utility.yul\":7471:7610   */\n      swap1\n      pop\n        /* \"#utility.yul\":7369:7617   */\n      swap2\n      swap1\n      pop\n      jump\t// out\n        /* \"#utility.yul\":7623:7845   */\n    tag_16:\n      0x00\n        /* \"#utility.yul\":7754:7756   */\n      0x20\n        /* \"#utility.yul\":7743:7752   */\n      dup3\n        /* \"#utility.yul\":7739:7757   */\n      add\n        /* \"#utility.yul\":7731:7757   */\n      swap1\n      pop\n        /* \"#utility.yul\":7767:7838   */\n      tag_166\n        /* \"#utility.yul\":7835:7836   */\n      0x00\n        /* \"#utility.yul\":7824:7833   */\n      dup4\n        /* \"#utility.yul\":7820:7837   */\n      add\n        /* \"#utility.yul\":7811:7817   */\n      dup5\n        /* \"#utility.yul\":7767:7838   */\n      tag_143\n      jump\t// in\n    tag_166:\n        /* \"#utility.yul\":7721:7845   */\n      swap3\n      swap2\n      pop\n      pop\n      jump\t// out\n        /* \"#utility.yul\":7851:8294   */\n    tag_64:\n      0x00\n        /* \"#utility.yul\":8040:8042   */\n      0x40\n        /* \"#utility.yul\":8029:8038   */\n      dup3\n        /* \"#utility.yul\":8025:8043   */\n      add\n        /* \"#utility.yul\":8017:8043   */\n      swap1\n      pop\n        /* \"#utility.yul\":8053:8124   */\n      tag_168\n        /* \"#utility.yul\":8121:8122   */\n      0x00\n        /* \"#utility.yul\":8110:8119   */\n      dup4\n        /* \"#utility.yul\":8106:8123   */\n      add\n        /* \"#utility.yul\":8097:8103   */\n      dup7\n        /* \"#utility.yul\":8053:8124   */\n      tag_143\n      jump\t// in\n    tag_168:\n        /* \"#utility.yul\":8171:8180   */\n      dup2\n        /* \"#utility.yul\":8165:8169   */\n      dup2\n        /* \"#utility.yul\":8161:8181   */\n      sub\n        /* \"#utility.yul\":8156:8158   */\n      0x20\n        /* \"#utility.yul\":8145:8154   */\n      dup4\n        /* \"#utility.yul\":8141:8159   */\n      add\n        /* \"#utility.yul\":8134:8182   */\n      mstore\n        /* \"#utility.yul\":8199:8287   */\n      tag_169\n        /* \"#utility.yul\":8282:8286   */\n      dup2\n        /* \"#utility.yul\":8273:8279   */\n      dup5\n        /* \"#utility.yul\":8265:8271   */\n      dup7\n        /* \"#utility.yul\":8199:8287   */\n      tag_112\n      jump\t// in\n    tag_169:\n        /* \"#utility.yul\":8191:8287   */\n      swap1\n      pop\n        /* \"#utility.yul\":8007:8294   */\n      swap5\n      swap4\n      pop\n      pop\n      pop\n      pop\n      jump\t// out\n        /* \"#utility.yul\":8300:8399   */\n    tag_123:\n      0x00\n        /* \"#utility.yul\":8386:8391   */\n      dup2\n        /* \"#utility.yul\":8380:8392   */\n      mload\n        /* \"#utility.yul\":8370:8392   */\n      swap1\n      pop\n        /* \"#utility.yul\":8359:8399   */\n      swap2\n      swap1\n      pop\n      jump\t// out\n        /* \"#utility.yul\":8405:8574   */\n    tag_115:\n      0x00\n        /* \"#utility.yul\":8523:8529   */\n      dup3\n        /* \"#utility.yul\":8518:8521   */\n      dup3\n        /* \"#utility.yul\":8511:8530   */\n      mstore\n        /* \"#utility.yul\":8563:8567   */\n      0x20\n        /* \"#utility.yul\":8558:8561   */\n      dup3\n        /* \"#utility.yul\":8554:8568   */\n      add\n        /* \"#utility.yul\":8539:8568   */\n      swap1\n      pop\n        /* \"#utility.yul\":8501:8574   */\n      swap3\n      swap2\n      pop\n      pop\n      jump\t// out\n        /* \"#utility.yul\":8580:8676   */\n    tag_111:\n      0x00\n        /* \"#utility.yul\":8646:8670   */\n      tag_173\n        /* \"#utility.yul\":8664:8669   */\n      dup3\n        /* \"#utility.yul\":8646:8670   */\n      tag_174\n      jump\t// in\n    tag_173:\n        /* \"#utility.yul\":8635:8670   */\n      swap1\n      pop\n        /* \"#utility.yul\":8625:8676   */\n      swap2\n      swap1\n      pop\n      jump\t// out\n        /* \"#utility.yul\":8682:8808   */\n    tag_174:\n      0x00\n        /* \"#utility.yul\":8759:8801   */\n      0xffffffffffffffffffffffffffffffffffffffff\n        /* \"#utility.yul\":8752:8757   */\n      dup3\n        /* \"#utility.yul\":8748:8802   */\n      and\n        /* \"#utility.yul\":8737:8802   */\n      swap1\n      pop\n        /* \"#utility.yul\":8727:8808   */\n      swap2\n      swap1\n      pop\n      jump\t// out\n        /* \"#utility.yul\":8814:8891   */\n    tag_146:\n      0x00\n        /* \"#utility.yul\":8880:8885   */\n      dup2\n        /* \"#utility.yul\":8869:8885   */\n      swap1\n      pop\n        /* \"#utility.yul\":8859:8891   */\n      swap2\n      swap1\n      pop\n      jump\t// out\n        /* \"#utility.yul\":8897:9051   */\n    tag_117:\n        /* \"#utility.yul\":8981:8987   */\n      dup3\n        /* \"#utility.yul\":8976:8979   */\n      dup2\n        /* \"#utility.yul\":8971:8974   */\n      dup4\n        /* \"#utility.yul\":8958:8988   */\n      calldatacopy\n        /* \"#utility.yul\":9043:9044   */\n      0x00\n        /* \"#utility.yul\":9034:9040   */\n      dup4\n        /* \"#utility.yul\":9029:9032   */\n      dup4\n        /* \"#utility.yul\":9025:9041   */\n      add\n        /* \"#utility.yul\":9018:9045   */\n      mstore\n        /* \"#utility.yul\":8948:9051   */\n      pop\n      pop\n      pop\n      jump\t// out\n        /* \"#utility.yul\":9057:9364   */\n    tag_126:\n        /* \"#utility.yul\":9125:9126   */\n      0x00\n        /* \"#utility.yul\":9135:9248   */\n    tag_179:\n        /* \"#utility.yul\":9149:9155   */\n      dup4\n        /* \"#utility.yul\":9146:9147   */\n      dup2\n        /* \"#utility.yul\":9143:9156   */\n      lt\n        /* \"#utility.yul\":9135:9248   */\n      iszero\n      tag_181\n      jumpi\n        /* \"#utility.yul\":9234:9235   */\n      dup1\n        /* \"#utility.yul\":9229:9232   */\n      dup3\n        /* \"#utility.yul\":9225:9236   */\n      add\n        /* \"#utility.yul\":9219:9237   */\n      mload\n        /* \"#utility.yul\":9215:9216   */\n      dup2\n        /* \"#utility.yul\":9210:9213   */\n      dup5\n        /* \"#utility.yul\":9206:9217   */\n      add\n        /* \"#utility.yul\":9199:9238   */\n      mstore\n        /* \"#utility.yul\":9171:9173   */\n      0x20\n        /* \"#utility.yul\":9168:9169   */\n      dup2\n        /* \"#utility.yul\":9164:9174   */\n      add\n        /* \"#utility.yul\":9159:9174   */\n      swap1\n      pop\n        /* \"#utility.yul\":9135:9248   */\n      jump(tag_179)\n    tag_181:\n        /* \"#utility.yul\":9266:9272   */\n      dup4\n        /* \"#utility.yul\":9263:9264   */\n      dup2\n        /* \"#utility.yul\":9260:9273   */\n      gt\n        /* \"#utility.yul\":9257:9259   */\n      iszero\n      tag_182\n      jumpi\n        /* \"#utility.yul\":9346:9347   */\n      0x00\n        /* \"#utility.yul\":9337:9343   */\n      dup5\n        /* \"#utility.yul\":9332:9335   */\n      dup5\n        /* \"#utility.yul\":9328:9344   */\n      add\n        /* \"#utility.yul\":9321:9348   */\n      mstore\n        /* \"#utility.yul\":9257:9259   */\n    tag_182:\n        /* \"#utility.yul\":9106:9364   */\n      pop\n      pop\n      pop\n      pop\n      jump\t// out\n        /* \"#utility.yul\":9370:9690   */\n    tag_51:\n      0x00\n        /* \"#utility.yul\":9451:9452   */\n      0x02\n        /* \"#utility.yul\":9445:9449   */\n      dup3\n        /* \"#utility.yul\":9441:9453   */\n      div\n        /* \"#utility.yul\":9431:9453   */\n      swap1\n      pop\n        /* \"#utility.yul\":9498:9499   */\n      0x01\n        /* \"#utility.yul\":9492:9496   */\n      dup3\n        /* \"#utility.yul\":9488:9500   */\n      and\n        /* \"#utility.yul\":9519:9537   */\n      dup1\n        /* \"#utility.yul\":9509:9511   */\n      tag_184\n      jumpi\n        /* \"#utility.yul\":9575:9579   */\n      0x7f\n        /* \"#utility.yul\":9567:9573   */\n      dup3\n        /* \"#utility.yul\":9563:9580   */\n      and\n        /* \"#utility.yul\":9553:9580   */\n      swap2\n      pop\n        /* \"#utility.yul\":9509:9511   */\n    tag_184:\n        /* \"#utility.yul\":9637:9639   */\n      0x20\n        /* \"#utility.yul\":9629:9635   */\n      dup3\n        /* \"#utility.yul\":9626:9640   */\n      lt\n        /* \"#utility.yul\":9606:9624   */\n      dup2\n        /* \"#utility.yul\":9603:9641   */\n      eq\n        /* \"#utility.yul\":9600:9602   */\n      iszero\n      tag_185\n      jumpi\n        /* \"#utility.yul\":9656:9674   */\n      tag_186\n      tag_187\n      jump\t// in\n    tag_186:\n        /* \"#utility.yul\":9600:9602   */\n    tag_185:\n        /* \"#utility.yul\":9421:9690   */\n      pop\n      swap2\n      swap1\n      pop\n      jump\t// out\n        /* \"#utility.yul\":9696:9929   */\n    tag_42:\n      0x00\n        /* \"#utility.yul\":9758:9782   */\n      tag_189\n        /* \"#utility.yul\":9776:9781   */\n      dup3\n        /* \"#utility.yul\":9758:9782   */\n      tag_146\n      jump\t// in\n    tag_189:\n        /* \"#utility.yul\":9749:9782   */\n      swap2\n      pop\n        /* \"#utility.yul\":9804:9870   */\n      0xffffffffffffffffffffffffffffffffffffffffffffffffffffffffffffffff\n        /* \"#utility.yul\":9797:9802   */\n      dup3\n        /* \"#utility.yul\":9794:9871   */\n      eq\n        /* \"#utility.yul\":9791:9793   */\n      iszero\n      tag_190\n      jumpi\n        /* \"#utility.yul\":9874:9892   */\n      tag_191\n      tag_192\n      jump\t// in\n    tag_191:\n        /* \"#utility.yul\":9791:9793   */\n    tag_190:\n        /* \"#utility.yul\":9921:9922   */\n      0x01\n        /* \"#utility.yul\":9914:9919   */\n      dup3\n        /* \"#utility.yul\":9910:9923   */\n      add\n        /* \"#utility.yul\":9903:9923   */\n      swap1\n      pop\n        /* \"#utility.yul\":9739:9929   */\n      swap2\n      swap1\n      pop\n      jump\t// out\n        /* \"#utility.yul\":9935:10115   */\n    tag_192:\n        /* \"#utility.yul\":9983:10060   */\n      0x4e487b7100000000000000000000000000000000000000000000000000000000\n        /* \"#utility.yul\":9980:9981   */\n      0x00\n        /* \"#utility.yul\":9973:10061   */\n      mstore\n        /* \"#utility.yul\":10080:10084   */\n      0x11\n        /* \"#utility.yul\":10077:10078   */\n      0x04\n        /* \"#utility.yul\":10070:10085   */\n      mstore\n        /* \"#utility.yul\":10104:10108   */\n      0x24\n        /* \"#utility.yul\":10101:10102   */\n      0x00\n        /* \"#utility.yul\":10094:10109   */\n      revert\n        /* \"#utility.yul\":10121:10301   */\n    tag_187:\n        /* \"#utility.yul\":10169:10246   */\n      0x4e487b7100000000000000000000000000000000000000000000000000000000\n        /* \"#utility.yul\":10166:10167   */\n      0x00\n        /* \"#utility.yul\":10159:10247   */\n      mstore\n        /* \"#utility.yul\":10266:10270   */\n      0x22\n        /* \"#utility.yul\":10263:10264   */\n      0x04\n        /* \"#utility.yul\":10256:10271   */\n      mstore\n        /* \"#utility.yul\":10290:10294   */\n      0x24\n        /* \"#utility.yul\":10287:10288   */\n      0x00\n        /* \"#utility.yul\":10280:10295   */\n      revert\n        /* \"#utility.yul\":10307:10409   */\n    tag_119:\n      0x00\n        /* \"#utility.yul\":10399:10401   */\n      0x1f\n        /* \"#utility.yul\":10395:10402   */\n      not\n        /* \"#utility.yul\":10390:10392   */\n      0x1f\n        /* \"#utility.yul\":10383:10388   */\n      dup4\n        /* \"#utility.yul\":10379:10393   */\n      add\n        /* \"#utility.yul\":10375:10403   */\n      and\n        /* \"#utility.yul\":10365:10403   */\n      swap1\n      pop\n        /* \"#utility.yul\":10355:10409   */\n      swap2\n      swap1\n      pop\n      jump\t// out\n        /* \"#utility.yul\":10415:10537   */\n    tag_88:\n        /* \"#utility.yul\":10488:10512   */\n      tag_197\n        /* \"#utility.yul\":10506:10511   */\n      dup2\n        /* \"#utility.yul\":10488:10512   */\n      tag_111\n      jump\t// in\n    tag_197:\n        /* \"#utility.yul\":10481:10486   */\n      dup2\n        /* \"#utility.yul\":10478:10513   */\n      eq\n        /* \"#utility.yul\":10468:10470   */\n      tag_198\n      jumpi\n        /* \"#utility.yul\":10527:10528   */\n      0x00\n        /* \"#utility.yul\":10524:10525   */\n      dup1\n        /* \"#utility.yul\":10517:10529   */\n      revert\n        /* \"#utility.yul\":10468:10470   */\n    tag_198:\n        /* \"#utility.yul\":10458:10537   */\n      pop\n      jump\t// out\n        /* \"#utility.yul\":10543:10665   */\n    tag_97:\n        /* \"#utility.yul\":10616:10640   */\n      tag_200\n        /* \"#utility.yul\":10634:10639   */\n      dup2\n        /* \"#utility.yul\":10616:10640   */\n      tag_146\n      jump\t// in\n    tag_200:\n        /* \"#utility.yul\":10609:10614   */\n      dup2\n        /* \"#utility.yul\":10606:10641   */\n      eq\n        /* \"#utility.yul\":10596:10598   */\n      tag_201\n      jumpi\n        /* \"#utility.yul\":10655:10656   */\n      0x00\n        /* \"#utility.yul\":10652:10653   */\n      dup1\n        /* \"#utility.yul\":10645:10657   */\n      revert\n        /* \"#utility.yul\":10596:10598   */\n    tag_201:\n        /* \"#utility.yul\":10586:10665   */\n      pop\n      jump\t// out\n\n    auxdata: 0xa264697066735822122097dfadaada625dd740919888705866821ce3b9ff40a2a9324f4b0fdd6887ca6464736f6c63430008000033\n}\n",
				"bytecode": {
					"linkReferences": {},
					"object": "608060405234801561001057600080fd5b50336000806101000a81548173ffffffffffffffffffffffffffffffffffffffff021916908373ffffffffffffffffffffffffffffffffffffffff16021790555060008054906101000a900473ffffffffffffffffffffffffffffffffffffffff1673ffffffffffffffffffffffffffffffffffffffff16600073ffffffffffffffffffffffffffffffffffffffff167f342827c97908e5e2f71151c08502a66d44b6f758e3ac2f1de95f02eb95f0a73560405160405180910390a36000600381905550610eb0806100e36000396000f3fe608060405234801561001057600080fd5b50600436106100625760003560e01c80630121b93f146100675780630deb56ab1461008357806335b8e820146100a1578063462e91ec146100d2578063893d20e8146100ee578063a6f9dae11461010c575b600080fd5b610081600480360381019061007c91906108bc565b610128565b005b61008b6102b9565b6040516100989190610c7b565b60405180910390f35b6100bb60048036038101906100b691906108bc565b6102c3565b6040516100c9929190610bab565b60405180910390f35b6100ec60048036038101906100e79190610877565b6103c1565b005b6100f6610553565b6040516101039190610b67565b60405180910390f35b6101266004803603810190610121919061084e565b61057c565b005b600260003373ffffffffffffffffffffffffffffffffffffffff1673ffffffffffffffffffffffffffffffffffffffff16815260200190815260200160002060009054906101000a900460ff16156101b5576040517f08c379a00000000000000000000000000000000000000000000000000000000081526004016101ac90610c1b565b60405180910390fd5b60035481106101f9576040517f08c379a00000000000000000000000000000000000000000000000000000000081526004016101f090610c5b565b60405180910390fd5b60016000828152602001908152602001600020600201600081548092919061022090610d94565b91905055506001600260003373ffffffffffffffffffffffffffffffffffffffff1673ffffffffffffffffffffffffffffffffffffffff16815260200190815260200160002060006101000a81548160ff0219169083151502179055507f4d99b957a2bc29a30ebd96a7be8e68fe50a3c701db28a91436490b7d53870ca433826040516102ae929190610b82565b60405180910390a150565b6000600354905090565b60606000600354831061030b576040517f08c379a000000000000000000000000000000000000000000000000000000000815260040161030290610bfb565b60405180910390fd5b600060016000858152602001908152602001600020905080600101816002015481805461033790610d62565b80601f016020809104026020016040519081016040528092919081815260200182805461036390610d62565b80156103b05780601f10610385576101008083540402835291602001916103b0565b820191906000526020600020905b81548152906001019060200180831161039357829003601f168201915b505050505091509250925050915091565b60008054906101000a900473ffffffffffffffffffffffffffffffffffffffff1673ffffffffffffffffffffffffffffffffffffffff163373ffffffffffffffffffffffffffffffffffffffff161461044f576040517f08c379a000000000000000000000000000000000000000000000000000000000815260040161044690610c3b565b60405180910390fd5b6040518060600160405280600354815260200183838080601f016020809104026020016040519081016040528093929190818152602001838380828437600081840152601f19601f82011690508083019250505050505050815260200160008152506001600060035481526020019081526020016000206000820151816000015560208201518160010190805190602001906104ec929190610737565b50604082015181600201559050507fe83b2a43e7e82d975c8a0a6d2f045153c869e111136a34d1889ab7b598e396a3600354838360405161052f93929190610c96565b60405180910390a16003600081548092919061054a90610d94565b91905055505050565b60008060009054906101000a900473ffffffffffffffffffffffffffffffffffffffff16905090565b60008054906101000a900473ffffffffffffffffffffffffffffffffffffffff1673ffffffffffffffffffffffffffffffffffffffff163373ffffffffffffffffffffffffffffffffffffffff161461060a576040517f08c379a000000000000000000000000000000000000000000000000000000000815260040161060190610c3b565b60405180910390fd5b600073ffffffffffffffffffffffffffffffffffffffff168173ffffffffffffffffffffffffffffffffffffffff16141561067a576040517f08c379a000000000000000000000000000000000000000000000000000000000815260040161067190610bdb565b60405180910390fd5b8073ffffffffffffffffffffffffffffffffffffffff1660008054906101000a900473ffffffffffffffffffffffffffffffffffffffff1673ffffffffffffffffffffffffffffffffffffffff167f342827c97908e5e2f71151c08502a66d44b6f758e3ac2f1de95f02eb95f0a73560405160405180910390a3806000806101000a81548173ffffffffffffffffffffffffffffffffffffffff021916908373ffffffffffffffffffffffffffffffffffffffff16021790555050565b82805461074390610d62565b90600052602060002090601f01602090048101928261076557600085556107ac565b82601f1061077e57805160ff19168380011785556107ac565b828001600101855582156107ac579182015b828111156107ab578251825591602001919060010190610790565b5b5090506107b991906107bd565b5090565b5b808211156107d65760008160009055506001016107be565b5090565b6000813590506107e981610e4c565b92915050565b60008083601f84011261080157600080fd5b8235905067ffffffffffffffff81111561081a57600080fd5b60208301915083600182028301111561083257600080fd5b9250929050565b60008135905061084881610e63565b92915050565b60006020828403121561086057600080fd5b600061086e848285016107da565b91505092915050565b6000806020838503121561088a57600080fd5b600083013567ffffffffffffffff8111156108a457600080fd5b6108b0858286016107ef565b92509250509250929050565b6000602082840312156108ce57600080fd5b60006108dc84828501610839565b91505092915050565b6108ee81610ce4565b82525050565b60006109008385610cd3565b935061090d838584610d20565b61091683610e3b565b840190509392505050565b600061092c82610cc8565b6109368185610cd3565b9350610946818560208601610d2f565b61094f81610e3b565b840191505092915050565b6000610967603283610cd3565b91507f43616e2774207472616e73666572206f776e65727368697020746f207468652060008301527f7a65726f20616464726573732c2066616d2e00000000000000000000000000006020830152604082019050919050565b60006109cd604283610cd3565b91507f566f74696e6753797374656d3a20496e76616c69642063616e6469646174652060008301527f49442e205374696c6c20646f6e2774206b6e6f772077686f207468617420697360208301527f2e200000000000000000000000000000000000000000000000000000000000006040830152606082019050919050565b6000610a59603b83610cd3565b91507f566f74696e6753797374656d3a20427275682c20796f7520616c72656164792060008301527f766f7465642e204f6e6520766f74652070657220706572736f6e2100000000006020830152604082019050919050565b6000610abf601a83610cd3565b91507f4e61682c20796f75277265206e6f7420746865206f776e65722e0000000000006000830152602082019050919050565b6000610aff603683610cd3565b91507f566f74696e6753797374656d3a20496e76616c69642063616e6469646174652060008301527f49442e2057686f206576656e20697320746861743f20000000000000000000006020830152604082019050919050565b610b6181610d16565b82525050565b6000602082019050610b7c60008301846108e5565b92915050565b6000604082019050610b9760008301856108e5565b610ba46020830184610b58565b9392505050565b60006040820190508181036000830152610bc58185610921565b9050610bd46020830184610b58565b9392505050565b60006020820190508181036000830152610bf48161095a565b9050919050565b60006020820190508181036000830152610c14816109c0565b9050919050565b60006020820190508181036000830152610c3481610a4c565b9050919050565b60006020820190508181036000830152610c5481610ab2565b9050919050565b60006020820190508181036000830152610c7481610af2565b9050919050565b6000602082019050610c906000830184610b58565b92915050565b6000604082019050610cab6000830186610b58565b8181036020830152610cbe8184866108f4565b9050949350505050565b600081519050919050565b600082825260208201905092915050565b6000610cef82610cf6565b9050919050565b600073ffffffffffffffffffffffffffffffffffffffff82169050919050565b6000819050919050565b82818337600083830152505050565b60005b83811015610d4d578082015181840152602081019050610d32565b83811115610d5c576000848401525b50505050565b60006002820490506001821680610d7a57607f821691505b60208210811415610d8e57610d8d610e0c565b5b50919050565b6000610d9f82610d16565b91507fffffffffffffffffffffffffffffffffffffffffffffffffffffffffffffffff821415610dd257610dd1610ddd565b5b600182019050919050565b7f4e487b7100000000000000000000000000000000000000000000000000000000600052601160045260246000fd5b7f4e487b7100000000000000000000000000000000000000000000000000000000600052602260045260246000fd5b6000601f19601f8301169050919050565b610e5581610ce4565b8114610e6057600080fd5b50565b610e6c81610d16565b8114610e7757600080fd5b5056fea264697066735822122097dfadaada625dd740919888705866821ce3b9ff40a2a9324f4b0fdd6887ca6464736f6c63430008000033",
					"opcodes": "PUSH1 0x80 PUSH1 0x40 MSTORE CALLVALUE DUP1 ISZERO PUSH2 0x10 JUMPI PUSH1 0x0 DUP1 REVERT JUMPDEST POP CALLER PUSH1 0x0 DUP1 PUSH2 0x100 EXP DUP2 SLOAD DUP2 PUSH20 0xFFFFFFFFFFFFFFFFFFFFFFFFFFFFFFFFFFFFFFFF MUL NOT AND SWAP1 DUP4 PUSH20 0xFFFFFFFFFFFFFFFFFFFFFFFFFFFFFFFFFFFFFFFF AND MUL OR SWAP1 SSTORE POP PUSH1 0x0 DUP1 SLOAD SWAP1 PUSH2 0x100 EXP SWAP1 DIV PUSH20 0xFFFFFFFFFFFFFFFFFFFFFFFFFFFFFFFFFFFFFFFF AND PUSH20 0xFFFFFFFFFFFFFFFFFFFFFFFFFFFFFFFFFFFFFFFF AND PUSH1 0x0 PUSH20 0xFFFFFFFFFFFFFFFFFFFFFFFFFFFFFFFFFFFFFFFF AND PUSH32 0x342827C97908E5E2F71151C08502A66D44B6F758E3AC2F1DE95F02EB95F0A735 PUSH1 0x40 MLOAD PUSH1 0x40 MLOAD DUP1 SWAP2 SUB SWAP1 LOG3 PUSH1 0x0 PUSH1 0x3 DUP2 SWAP1 SSTORE POP PUSH2 0xEB0 DUP1 PUSH2 0xE3 PUSH1 0x0 CODECOPY PUSH1 0x0 RETURN INVALID PUSH1 0x80 PUSH1 0x40 MSTORE CALLVALUE DUP1 ISZERO PUSH2 0x10 JUMPI PUSH1 0x0 DUP1 REVERT JUMPDEST POP PUSH1 0x4 CALLDATASIZE LT PUSH2 0x62 JUMPI PUSH1 0x0 CALLDATALOAD PUSH1 0xE0 SHR DUP1 PUSH4 0x121B93F EQ PUSH2 0x67 JUMPI DUP1 PUSH4 0xDEB56AB EQ PUSH2 0x83 JUMPI DUP1 PUSH4 0x35B8E820 EQ PUSH2 0xA1 JUMPI DUP1 PUSH4 0x462E91EC EQ PUSH2 0xD2 JUMPI DUP1 PUSH4 0x893D20E8 EQ PUSH2 0xEE JUMPI DUP1 PUSH4 0xA6F9DAE1 EQ PUSH2 0x10C JUMPI JUMPDEST PUSH1 0x0 DUP1 REVERT JUMPDEST PUSH2 0x81 PUSH1 0x4 DUP1 CALLDATASIZE SUB DUP2 ADD SWAP1 PUSH2 0x7C SWAP2 SWAP1 PUSH2 0x8BC JUMP JUMPDEST PUSH2 0x128 JUMP JUMPDEST STOP JUMPDEST PUSH2 0x8B PUSH2 0x2B9 JUMP JUMPDEST PUSH1 0x40 MLOAD PUSH2 0x98 SWAP2 SWAP1 PUSH2 0xC7B JUMP JUMPDEST PUSH1 0x40 MLOAD DUP1 SWAP2 SUB SWAP1 RETURN JUMPDEST PUSH2 0xBB PUSH1 0x4 DUP1 CALLDATASIZE SUB DUP2 ADD SWAP1 PUSH2 0xB6 SWAP2 SWAP1 PUSH2 0x8BC JUMP JUMPDEST PUSH2 0x2C3 JUMP JUMPDEST PUSH1 0x40 MLOAD PUSH2 0xC9 SWAP3 SWAP2 SWAP1 PUSH2 0xBAB JUMP JUMPDEST PUSH1 0x40 MLOAD DUP1 SWAP2 SUB SWAP1 RETURN JUMPDEST PUSH2 0xEC PUSH1 0x4 DUP1 CALLDATASIZE SUB DUP2 ADD SWAP1 PUSH2 0xE7 SWAP2 SWAP1 PUSH2 0x877 JUMP JUMPDEST PUSH2 0x3C1 JUMP JUMPDEST STOP JUMPDEST PUSH2 0xF6 PUSH2 0x553 JUMP JUMPDEST PUSH1 0x40 MLOAD PUSH2 0x103 SWAP2 SWAP1 PUSH2 0xB67 JUMP JUMPDEST PUSH1 0x40 MLOAD DUP1 SWAP2 SUB SWAP1 RETURN JUMPDEST PUSH2 0x126 PUSH1 0x4 DUP1 CALLDATASIZE SUB DUP2 ADD SWAP1 PUSH2 0x121 SWAP2 SWAP1 PUSH2 0x84E JUMP JUMPDEST PUSH2 0x57C JUMP JUMPDEST STOP JUMPDEST PUSH1 0x2 PUSH1 0x0 CALLER PUSH20 0xFFFFFFFFFFFFFFFFFFFFFFFFFFFFFFFFFFFFFFFF AND PUSH20 0xFFFFFFFFFFFFFFFFFFFFFFFFFFFFFFFFFFFFFFFF AND DUP2 MSTORE PUSH1 0x20 ADD SWAP1 DUP2 MSTORE PUSH1 0x20 ADD PUSH1 0x0 KECCAK256 PUSH1 0x0 SWAP1 SLOAD SWAP1 PUSH2 0x100 EXP SWAP1 DIV PUSH1 0xFF AND ISZERO PUSH2 0x1B5 JUMPI PUSH1 0x40 MLOAD PUSH32 0x8C379A000000000000000000000000000000000000000000000000000000000 DUP2 MSTORE PUSH1 0x4 ADD PUSH2 0x1AC SWAP1 PUSH2 0xC1B JUMP JUMPDEST PUSH1 0x40 MLOAD DUP1 SWAP2 SUB SWAP1 REVERT JUMPDEST PUSH1 0x3 SLOAD DUP2 LT PUSH2 0x1F9 JUMPI PUSH1 0x40 MLOAD PUSH32 0x8C379A000000000000000000000000000000000000000000000000000000000 DUP2 MSTORE PUSH1 0x4 ADD PUSH2 0x1F0 SWAP1 PUSH2 0xC5B JUMP JUMPDEST PUSH1 0x40 MLOAD DUP1 SWAP2 SUB SWAP1 REVERT JUMPDEST PUSH1 0x1 PUSH1 0x0 DUP3 DUP2 MSTORE PUSH1 0x20 ADD SWAP1 DUP2 MSTORE PUSH1 0x20 ADD PUSH1 0x0 KECCAK256 PUSH1 0x2 ADD PUSH1 0x0 DUP2 SLOAD DUP1 SWAP3 SWAP2 SWAP1 PUSH2 0x220 SWAP1 PUSH2 0xD94 JUMP JUMPDEST SWAP2 SWAP1 POP SSTORE POP PUSH1 0x1 PUSH1 0x2 PUSH1 0x0 CALLER PUSH20 0xFFFFFFFFFFFFFFFFFFFFFFFFFFFFFFFFFFFFFFFF AND PUSH20 0xFFFFFFFFFFFFFFFFFFFFFFFFFFFFFFFFFFFFFFFF AND DUP2 MSTORE PUSH1 0x20 ADD SWAP1 DUP2 MSTORE PUSH1 0x20 ADD PUSH1 0x0 KECCAK256 PUSH1 0x0 PUSH2 0x100 EXP DUP2 SLOAD DUP2 PUSH1 0xFF MUL NOT AND SWAP1 DUP4 ISZERO ISZERO MUL OR SWAP1 SSTORE POP PUSH32 0x4D99B957A2BC29A30EBD96A7BE8E68FE50A3C701DB28A91436490B7D53870CA4 CALLER DUP3 PUSH1 0x40 MLOAD PUSH2 0x2AE SWAP3 SWAP2 SWAP1 PUSH2 0xB82 JUMP JUMPDEST PUSH1 0x40 MLOAD DUP1 SWAP2 SUB SWAP1 LOG1 POP JUMP JUMPDEST PUSH1 0x0 PUSH1 0x3 SLOAD SWAP1 POP SWAP1 JUMP JUMPDEST PUSH1 0x60 PUSH1 0x0 PUSH1 0x3 SLOAD DUP4 LT PUSH2 0x30B JUMPI PUSH1 0x40 MLOAD PUSH32 0x8C379A000000000000000000000000000000000000000000000000000000000 DUP2 MSTORE PUSH1 0x4 ADD PUSH2 0x302 SWAP1 PUSH2 0xBFB JUMP JUMPDEST PUSH1 0x40 MLOAD DUP1 SWAP2 SUB SWAP1 REVERT JUMPDEST PUSH1 0x0 PUSH1 0x1 PUSH1 0x0 DUP6 DUP2 MSTORE PUSH1 0x20 ADD SWAP1 DUP2 MSTORE PUSH1 0x20 ADD PUSH1 0x0 KECCAK256 SWAP1 POP DUP1 PUSH1 0x1 ADD DUP2 PUSH1 0x2 ADD SLOAD DUP2 DUP1 SLOAD PUSH2 0x337 SWAP1 PUSH2 0xD62 JUMP JUMPDEST DUP1 PUSH1 0x1F ADD PUSH1 0x20 DUP1 SWAP2 DIV MUL PUSH1 0x20 ADD PUSH1 0x40 MLOAD SWAP1 DUP2 ADD PUSH1 0x40 MSTORE DUP1 SWAP3 SWAP2 SWAP1 DUP2 DUP2 MSTORE PUSH1 0x20 ADD DUP3 DUP1 SLOAD PUSH2 0x363 SWAP1 PUSH2 0xD62 JUMP JUMPDEST DUP1 ISZERO PUSH2 0x3B0 JUMPI DUP1 PUSH1 0x1F LT PUSH2 0x385 JUMPI PUSH2 0x100 DUP1 DUP4 SLOAD DIV MUL DUP4 MSTORE SWAP2 PUSH1 0x20 ADD SWAP2 PUSH2 0x3B0 JUMP JUMPDEST DUP3 ADD SWAP2 SWAP1 PUSH1 0x0 MSTORE PUSH1 0x20 PUSH1 0x0 KECCAK256 SWAP1 JUMPDEST DUP2 SLOAD DUP2 MSTORE SWAP1 PUSH1 0x1 ADD SWAP1 PUSH1 0x20 ADD DUP1 DUP4 GT PUSH2 0x393 JUMPI DUP3 SWAP1 SUB PUSH1 0x1F AND DUP3 ADD SWAP2 JUMPDEST POP POP POP POP POP SWAP2 POP SWAP3 POP SWAP3 POP POP SWAP2 POP SWAP2 JUMP JUMPDEST PUSH1 0x0 DUP1 SLOAD SWAP1 PUSH2 0x100 EXP SWAP1 DIV PUSH20 0xFFFFFFFFFFFFFFFFFFFFFFFFFFFFFFFFFFFFFFFF AND PUSH20 0xFFFFFFFFFFFFFFFFFFFFFFFFFFFFFFFFFFFFFFFF AND CALLER PUSH20 0xFFFFFFFFFFFFFFFFFFFFFFFFFFFFFFFFFFFFFFFF AND EQ PUSH2 0x44F JUMPI PUSH1 0x40 MLOAD PUSH32 0x8C379A000000000000000000000000000000000000000000000000000000000 DUP2 MSTORE PUSH1 0x4 ADD PUSH2 0x446 SWAP1 PUSH2 0xC3B JUMP JUMPDEST PUSH1 0x40 MLOAD DUP1 SWAP2 SUB SWAP1 REVERT JUMPDEST PUSH1 0x40 MLOAD DUP1 PUSH1 0x60 ADD PUSH1 0x40 MSTORE DUP1 PUSH1 0x3 SLOAD DUP2 MSTORE PUSH1 0x20 ADD DUP4 DUP4 DUP1 DUP1 PUSH1 0x1F ADD PUSH1 0x20 DUP1 SWAP2 DIV MUL PUSH1 0x20 ADD PUSH1 0x40 MLOAD SWAP1 DUP2 ADD PUSH1 0x40 MSTORE DUP1 SWAP4 SWAP3 SWAP2 SWAP1 DUP2 DUP2 MSTORE PUSH1 0x20 ADD DUP4 DUP4 DUP1 DUP3 DUP5 CALLDATACOPY PUSH1 0x0 DUP2 DUP5 ADD MSTORE PUSH1 0x1F NOT PUSH1 0x1F DUP3 ADD AND SWAP1 POP DUP1 DUP4 ADD SWAP3 POP POP POP POP POP POP POP DUP2 MSTORE PUSH1 0x20 ADD PUSH1 0x0 DUP2 MSTORE POP PUSH1 0x1 PUSH1 0x0 PUSH1 0x3 SLOAD DUP2 MSTORE PUSH1 0x20 ADD SWAP1 DUP2 MSTORE PUSH1 0x20 ADD PUSH1 0x0 KECCAK256 PUSH1 0x0 DUP3 ADD MLOAD DUP2 PUSH1 0x0 ADD SSTORE PUSH1 0x20 DUP3 ADD MLOAD DUP2 PUSH1 0x1 ADD SWAP1 DUP1 MLOAD SWAP1 PUSH1 0x20 ADD SWAP1 PUSH2 0x4EC SWAP3 SWAP2 SWAP1 PUSH2 0x737 JUMP JUMPDEST POP PUSH1 0x40 DUP3 ADD MLOAD DUP2 PUSH1 0x2 ADD SSTORE SWAP1 POP POP PUSH32 0xE83B2A43E7E82D975C8A0A6D2F045153C869E111136A34D1889AB7B598E396A3 PUSH1 0x3 SLOAD DUP4 DUP4 PUSH1 0x40 MLOAD PUSH2 0x52F SWAP4 SWAP3 SWAP2 SWAP1 PUSH2 0xC96 JUMP JUMPDEST PUSH1 0x40 MLOAD DUP1 SWAP2 SUB SWAP1 LOG1 PUSH1 0x3 PUSH1 0x0 DUP2 SLOAD DUP1 SWAP3 SWAP2 SWAP1 PUSH2 0x54A SWAP1 PUSH2 0xD94 JUMP JUMPDEST SWAP2 SWAP1 POP SSTORE POP POP POP JUMP JUMPDEST PUSH1 0x0 DUP1 PUSH1 0x0 SWAP1 SLOAD SWAP1 PUSH2 0x100 EXP SWAP1 DIV PUSH20 0xFFFFFFFFFFFFFFFFFFFFFFFFFFFFFFFFFFFFFFFF AND SWAP1 POP SWAP1 JUMP JUMPDEST PUSH1 0x0 DUP1 SLOAD SWAP1 PUSH2 0x100 EXP SWAP1 DIV PUSH20 0xFFFFFFFFFFFFFFFFFFFFFFFFFFFFFFFFFFFFFFFF AND PUSH20 0xFFFFFFFFFFFFFFFFFFFFFFFFFFFFFFFFFFFFFFFF AND CALLER PUSH20 0xFFFFFFFFFFFFFFFFFFFFFFFFFFFFFFFFFFFFFFFF AND EQ PUSH2 0x60A JUMPI PUSH1 0x40 MLOAD PUSH32 0x8C379A000000000000000000000000000000000000000000000000000000000 DUP2 MSTORE PUSH1 0x4 ADD PUSH2 0x601 SWAP1 PUSH2 0xC3B JUMP JUMPDEST PUSH1 0x40 MLOAD DUP1 SWAP2 SUB SWAP1 REVERT JUMPDEST PUSH1 0x0 PUSH20 0xFFFFFFFFFFFFFFFFFFFFFFFFFFFFFFFFFFFFFFFF AND DUP2 PUSH20 0xFFFFFFFFFFFFFFFFFFFFFFFFFFFFFFFFFFFFFFFF AND EQ ISZERO PUSH2 0x67A JUMPI PUSH1 0x40 MLOAD PUSH32 0x8C379A000000000000000000000000000000000000000000000000000000000 DUP2 MSTORE PUSH1 0x4 ADD PUSH2 0x671 SWAP1 PUSH2 0xBDB JUMP JUMPDEST PUSH1 0x40 MLOAD DUP1 SWAP2 SUB SWAP1 REVERT JUMPDEST DUP1 PUSH20 0xFFFFFFFFFFFFFFFFFFFFFFFFFFFFFFFFFFFFFFFF AND PUSH1 0x0 DUP1 SLOAD SWAP1 PUSH2 0x100 EXP SWAP1 DIV PUSH20 0xFFFFFFFFFFFFFFFFFFFFFFFFFFFFFFFFFFFFFFFF AND PUSH20 0xFFFFFFFFFFFFFFFFFFFFFFFFFFFFFFFFFFFFFFFF AND PUSH32 0x342827C97908E5E2F71151C08502A66D44B6F758E3AC2F1DE95F02EB95F0A735 PUSH1 0x40 MLOAD PUSH1 0x40 MLOAD DUP1 SWAP2 SUB SWAP1 LOG3 DUP1 PUSH1 0x0 DUP1 PUSH2 0x100 EXP DUP2 SLOAD DUP2 PUSH20 0xFFFFFFFFFFFFFFFFFFFFFFFFFFFFFFFFFFFFFFFF MUL NOT AND SWAP1 DUP4 PUSH20 0xFFFFFFFFFFFFFFFFFFFFFFFFFFFFFFFFFFFFFFFF AND MUL OR SWAP1 SSTORE POP POP JUMP JUMPDEST DUP3 DUP1 SLOAD PUSH2 0x743 SWAP1 PUSH2 0xD62 JUMP JUMPDEST SWAP1 PUSH1 0x0 MSTORE PUSH1 0x20 PUSH1 0x0 KECCAK256 SWAP1 PUSH1 0x1F ADD PUSH1 0x20 SWAP1 DIV DUP2 ADD SWAP3 DUP3 PUSH2 0x765 JUMPI PUSH1 0x0 DUP6 SSTORE PUSH2 0x7AC JUMP JUMPDEST DUP3 PUSH1 0x1F LT PUSH2 0x77E JUMPI DUP1 MLOAD PUSH1 0xFF NOT AND DUP4 DUP1 ADD OR DUP6 SSTORE PUSH2 0x7AC JUMP JUMPDEST DUP3 DUP1 ADD PUSH1 0x1 ADD DUP6 SSTORE DUP3 ISZERO PUSH2 0x7AC JUMPI SWAP2 DUP3 ADD JUMPDEST DUP3 DUP2 GT ISZERO PUSH2 0x7AB JUMPI DUP3 MLOAD DUP3 SSTORE SWAP2 PUSH1 0x20 ADD SWAP2 SWAP1 PUSH1 0x1 ADD SWAP1 PUSH2 0x790 JUMP JUMPDEST JUMPDEST POP SWAP1 POP PUSH2 0x7B9 SWAP2 SWAP1 PUSH2 0x7BD JUMP JUMPDEST POP SWAP1 JUMP JUMPDEST JUMPDEST DUP1 DUP3 GT ISZERO PUSH2 0x7D6 JUMPI PUSH1 0x0 DUP2 PUSH1 0x0 SWAP1 SSTORE POP PUSH1 0x1 ADD PUSH2 0x7BE JUMP JUMPDEST POP SWAP1 JUMP JUMPDEST PUSH1 0x0 DUP2 CALLDATALOAD SWAP1 POP PUSH2 0x7E9 DUP2 PUSH2 0xE4C JUMP JUMPDEST SWAP3 SWAP2 POP POP JUMP JUMPDEST PUSH1 0x0 DUP1 DUP4 PUSH1 0x1F DUP5 ADD SLT PUSH2 0x801 JUMPI PUSH1 0x0 DUP1 REVERT JUMPDEST DUP3 CALLDATALOAD SWAP1 POP PUSH8 0xFFFFFFFFFFFFFFFF DUP2 GT ISZERO PUSH2 0x81A JUMPI PUSH1 0x0 DUP1 REVERT JUMPDEST PUSH1 0x20 DUP4 ADD SWAP2 POP DUP4 PUSH1 0x1 DUP3 MUL DUP4 ADD GT ISZERO PUSH2 0x832 JUMPI PUSH1 0x0 DUP1 REVERT JUMPDEST SWAP3 POP SWAP3 SWAP1 POP JUMP JUMPDEST PUSH1 0x0 DUP2 CALLDATALOAD SWAP1 POP PUSH2 0x848 DUP2 PUSH2 0xE63 JUMP JUMPDEST SWAP3 SWAP2 POP POP JUMP JUMPDEST PUSH1 0x0 PUSH1 0x20 DUP3 DUP5 SUB SLT ISZERO PUSH2 0x860 JUMPI PUSH1 0x0 DUP1 REVERT JUMPDEST PUSH1 0x0 PUSH2 0x86E DUP5 DUP3 DUP6 ADD PUSH2 0x7DA JUMP JUMPDEST SWAP2 POP POP SWAP3 SWAP2 POP POP JUMP JUMPDEST PUSH1 0x0 DUP1 PUSH1 0x20 DUP4 DUP6 SUB SLT ISZERO PUSH2 0x88A JUMPI PUSH1 0x0 DUP1 REVERT JUMPDEST PUSH1 0x0 DUP4 ADD CALLDATALOAD PUSH8 0xFFFFFFFFFFFFFFFF DUP2 GT ISZERO PUSH2 0x8A4 JUMPI PUSH1 0x0 DUP1 REVERT JUMPDEST PUSH2 0x8B0 DUP6 DUP3 DUP7 ADD PUSH2 0x7EF JUMP JUMPDEST SWAP3 POP SWAP3 POP POP SWAP3 POP SWAP3 SWAP1 POP JUMP JUMPDEST PUSH1 0x0 PUSH1 0x20 DUP3 DUP5 SUB SLT ISZERO PUSH2 0x8CE JUMPI PUSH1 0x0 DUP1 REVERT JUMPDEST PUSH1 0x0 PUSH2 0x8DC DUP5 DUP3 DUP6 ADD PUSH2 0x839 JUMP JUMPDEST SWAP2 POP POP SWAP3 SWAP2 POP POP JUMP JUMPDEST PUSH2 0x8EE DUP2 PUSH2 0xCE4 JUMP JUMPDEST DUP3 MSTORE POP POP JUMP JUMPDEST PUSH1 0x0 PUSH2 0x900 DUP4 DUP6 PUSH2 0xCD3 JUMP JUMPDEST SWAP4 POP PUSH2 0x90D DUP4 DUP6 DUP5 PUSH2 0xD20 JUMP JUMPDEST PUSH2 0x916 DUP4 PUSH2 0xE3B JUMP JUMPDEST DUP5 ADD SWAP1 POP SWAP4 SWAP3 POP POP POP JUMP JUMPDEST PUSH1 0x0 PUSH2 0x92C DUP3 PUSH2 0xCC8 JUMP JUMPDEST PUSH2 0x936 DUP2 DUP6 PUSH2 0xCD3 JUMP JUMPDEST SWAP4 POP PUSH2 0x946 DUP2 DUP6 PUSH1 0x20 DUP7 ADD PUSH2 0xD2F JUMP JUMPDEST PUSH2 0x94F DUP2 PUSH2 0xE3B JUMP JUMPDEST DUP5 ADD SWAP2 POP POP SWAP3 SWAP2 POP POP JUMP JUMPDEST PUSH1 0x0 PUSH2 0x967 PUSH1 0x32 DUP4 PUSH2 0xCD3 JUMP JUMPDEST SWAP2 POP PUSH32 0x43616E2774207472616E73666572206F776E65727368697020746F2074686520 PUSH1 0x0 DUP4 ADD MSTORE PUSH32 0x7A65726F20616464726573732C2066616D2E0000000000000000000000000000 PUSH1 0x20 DUP4 ADD MSTORE PUSH1 0x40 DUP3 ADD SWAP1 POP SWAP2 SWAP1 POP JUMP JUMPDEST PUSH1 0x0 PUSH2 0x9CD PUSH1 0x42 DUP4 PUSH2 0xCD3 JUMP JUMPDEST SWAP2 POP PUSH32 0x566F74696E6753797374656D3A20496E76616C69642063616E64696461746520 PUSH1 0x0 DUP4 ADD MSTORE PUSH32 0x49442E205374696C6C20646F6E2774206B6E6F772077686F2074686174206973 PUSH1 0x20 DUP4 ADD MSTORE PUSH32 0x2E20000000000000000000000000000000000000000000000000000000000000 PUSH1 0x40 DUP4 ADD MSTORE PUSH1 0x60 DUP3 ADD SWAP1 POP SWAP2 SWAP1 POP JUMP JUMPDEST PUSH1 0x0 PUSH2 0xA59 PUSH1 0x3B DUP4 PUSH2 0xCD3 JUMP JUMPDEST SWAP2 POP PUSH32 0x566F74696E6753797374656D3A20427275682C20796F7520616C726561647920 PUSH1 0x0 DUP4 ADD MSTORE PUSH32 0x766F7465642E204F6E6520766F74652070657220706572736F6E210000000000 PUSH1 0x20 DUP4 ADD MSTORE PUSH1 0x40 DUP3 ADD SWAP1 POP SWAP2 SWAP1 POP JUMP JUMPDEST PUSH1 0x0 PUSH2 0xABF PUSH1 0x1A DUP4 PUSH2 0xCD3 JUMP JUMPDEST SWAP2 POP PUSH32 0x4E61682C20796F75277265206E6F7420746865206F776E65722E000000000000 PUSH1 0x0 DUP4 ADD MSTORE PUSH1 0x20 DUP3 ADD SWAP1 POP SWAP2 SWAP1 POP JUMP JUMPDEST PUSH1 0x0 PUSH2 0xAFF PUSH1 0x36 DUP4 PUSH2 0xCD3 JUMP JUMPDEST SWAP2 POP PUSH32 0x566F74696E6753797374656D3A20496E76616C69642063616E64696461746520 PUSH1 0x0 DUP4 ADD MSTORE PUSH32 0x49442E2057686F206576656E20697320746861743F2000000000000000000000 PUSH1 0x20 DUP4 ADD MSTORE PUSH1 0x40 DUP3 ADD SWAP1 POP SWAP2 SWAP1 POP JUMP JUMPDEST PUSH2 0xB61 DUP2 PUSH2 0xD16 JUMP JUMPDEST DUP3 MSTORE POP POP JUMP JUMPDEST PUSH1 0x0 PUSH1 0x20 DUP3 ADD SWAP1 POP PUSH2 0xB7C PUSH1 0x0 DUP4 ADD DUP5 PUSH2 0x8E5 JUMP JUMPDEST SWAP3 SWAP2 POP POP JUMP JUMPDEST PUSH1 0x0 PUSH1 0x40 DUP3 ADD SWAP1 POP PUSH2 0xB97 PUSH1 0x0 DUP4 ADD DUP6 PUSH2 0x8E5 JUMP JUMPDEST PUSH2 0xBA4 PUSH1 0x20 DUP4 ADD DUP5 PUSH2 0xB58 JUMP JUMPDEST SWAP4 SWAP3 POP POP POP JUMP JUMPDEST PUSH1 0x0 PUSH1 0x40 DUP3 ADD SWAP1 POP DUP2 DUP2 SUB PUSH1 0x0 DUP4 ADD MSTORE PUSH2 0xBC5 DUP2 DUP6 PUSH2 0x921 JUMP JUMPDEST SWAP1 POP PUSH2 0xBD4 PUSH1 0x20 DUP4 ADD DUP5 PUSH2 0xB58 JUMP JUMPDEST SWAP4 SWAP3 POP POP POP JUMP JUMPDEST PUSH1 0x0 PUSH1 0x20 DUP3 ADD SWAP1 POP DUP2 DUP2 SUB PUSH1 0x0 DUP4 ADD MSTORE PUSH2 0xBF4 DUP2 PUSH2 0x95A JUMP JUMPDEST SWAP1 POP SWAP2 SWAP1 POP JUMP JUMPDEST PUSH1 0x0 PUSH1 0x20 DUP3 ADD SWAP1 POP DUP2 DUP2 SUB PUSH1 0x0 DUP4 ADD MSTORE PUSH2 0xC14 DUP2 PUSH2 0x9C0 JUMP JUMPDEST SWAP1 POP SWAP2 SWAP1 POP JUMP JUMPDEST PUSH1 0x0 PUSH1 0x20 DUP3 ADD SWAP1 POP DUP2 DUP2 SUB PUSH1 0x0 DUP4 ADD MSTORE PUSH2 0xC34 DUP2 PUSH2 0xA4C JUMP JUMPDEST SWAP1 POP SWAP2 SWAP1 POP JUMP JUMPDEST PUSH1 0x0 PUSH1 0x20 DUP3 ADD SWAP1 POP DUP2 DUP2 SUB PUSH1 0x0 DUP4 ADD MSTORE PUSH2 0xC54 DUP2 PUSH2 0xAB2 JUMP JUMPDEST SWAP1 POP SWAP2 SWAP1 POP JUMP JUMPDEST PUSH1 0x0 PUSH1 0x20 DUP3 ADD SWAP1 POP DUP2 DUP2 SUB PUSH1 0x0 DUP4 ADD MSTORE PUSH2 0xC74 DUP2 PUSH2 0xAF2 JUMP JUMPDEST SWAP1 POP SWAP2 SWAP1 POP JUMP JUMPDEST PUSH1 0x0 PUSH1 0x20 DUP3 ADD SWAP1 POP PUSH2 0xC90 PUSH1 0x0 DUP4 ADD DUP5 PUSH2 0xB58 JUMP JUMPDEST SWAP3 SWAP2 POP POP JUMP JUMPDEST PUSH1 0x0 PUSH1 0x40 DUP3 ADD SWAP1 POP PUSH2 0xCAB PUSH1 0x0 DUP4 ADD DUP7 PUSH2 0xB58 JUMP JUMPDEST DUP2 DUP2 SUB PUSH1 0x20 DUP4 ADD MSTORE PUSH2 0xCBE DUP2 DUP5 DUP7 PUSH2 0x8F4 JUMP JUMPDEST SWAP1 POP SWAP5 SWAP4 POP POP POP POP JUMP JUMPDEST PUSH1 0x0 DUP2 MLOAD SWAP1 POP SWAP2 SWAP1 POP JUMP JUMPDEST PUSH1 0x0 DUP3 DUP3 MSTORE PUSH1 0x20 DUP3 ADD SWAP1 POP SWAP3 SWAP2 POP POP JUMP JUMPDEST PUSH1 0x0 PUSH2 0xCEF DUP3 PUSH2 0xCF6 JUMP JUMPDEST SWAP1 POP SWAP2 SWAP1 POP JUMP JUMPDEST PUSH1 0x0 PUSH20 0xFFFFFFFFFFFFFFFFFFFFFFFFFFFFFFFFFFFFFFFF DUP3 AND SWAP1 POP SWAP2 SWAP1 POP JUMP JUMPDEST PUSH1 0x0 DUP2 SWAP1 POP SWAP2 SWAP1 POP JUMP JUMPDEST DUP3 DUP2 DUP4 CALLDATACOPY PUSH1 0x0 DUP4 DUP4 ADD MSTORE POP POP POP JUMP JUMPDEST PUSH1 0x0 JUMPDEST DUP4 DUP2 LT ISZERO PUSH2 0xD4D JUMPI DUP1 DUP3 ADD MLOAD DUP2 DUP5 ADD MSTORE PUSH1 0x20 DUP2 ADD SWAP1 POP PUSH2 0xD32 JUMP JUMPDEST DUP4 DUP2 GT ISZERO PUSH2 0xD5C JUMPI PUSH1 0x0 DUP5 DUP5 ADD MSTORE JUMPDEST POP POP POP POP JUMP JUMPDEST PUSH1 0x0 PUSH1 0x2 DUP3 DIV SWAP1 POP PUSH1 0x1 DUP3 AND DUP1 PUSH2 0xD7A JUMPI PUSH1 0x7F DUP3 AND SWAP2 POP JUMPDEST PUSH1 0x20 DUP3 LT DUP2 EQ ISZERO PUSH2 0xD8E JUMPI PUSH2 0xD8D PUSH2 0xE0C JUMP JUMPDEST JUMPDEST POP SWAP2 SWAP1 POP JUMP JUMPDEST PUSH1 0x0 PUSH2 0xD9F DUP3 PUSH2 0xD16 JUMP JUMPDEST SWAP2 POP PUSH32 0xFFFFFFFFFFFFFFFFFFFFFFFFFFFFFFFFFFFFFFFFFFFFFFFFFFFFFFFFFFFFFFFF DUP3 EQ ISZERO PUSH2 0xDD2 JUMPI PUSH2 0xDD1 PUSH2 0xDDD JUMP JUMPDEST JUMPDEST PUSH1 0x1 DUP3 ADD SWAP1 POP SWAP2 SWAP1 POP JUMP JUMPDEST PUSH32 0x4E487B7100000000000000000000000000000000000000000000000000000000 PUSH1 0x0 MSTORE PUSH1 0x11 PUSH1 0x4 MSTORE PUSH1 0x24 PUSH1 0x0 REVERT JUMPDEST PUSH32 0x4E487B7100000000000000000000000000000000000000000000000000000000 PUSH1 0x0 MSTORE PUSH1 0x22 PUSH1 0x4 MSTORE PUSH1 0x24 PUSH1 0x0 REVERT JUMPDEST PUSH1 0x0 PUSH1 0x1F NOT PUSH1 0x1F DUP4 ADD AND SWAP1 POP SWAP2 SWAP1 POP JUMP JUMPDEST PUSH2 0xE55 DUP2 PUSH2 0xCE4 JUMP JUMPDEST DUP2 EQ PUSH2 0xE60 JUMPI PUSH1 0x0 DUP1 REVERT JUMPDEST POP JUMP JUMPDEST PUSH2 0xE6C DUP2 PUSH2 0xD16 JUMP JUMPDEST DUP2 EQ PUSH2 0xE77 JUMPI PUSH1 0x0 DUP1 REVERT JUMPDEST POP JUMP INVALID LOG2 PUSH5 0x6970667358 0x22 SLT KECCAK256 SWAP8 0xDF 0xAD 0xAA 0xDA PUSH3 0x5DD740 SWAP2 SWAP9 DUP9 PUSH17 0x5866821CE3B9FF40A2A9324F4B0FDD6887 0xCA PUSH5 0x64736F6C63 NUMBER STOP ADDMOD STOP STOP CALLER "
				},
				"gasEstimates": {
					"creation": {
						"codeDepositCost": "752000",
						"executionCost": "29044",
						"totalCost": "781044"
					},
					"external": {
						"addCandidate(string)": "infinite",
						"changeOwner(address)": "24693",
						"getCandidate(uint256)": "infinite",
						"getOwner()": "1288",
						"getTotalCandidates()": "1137",
						"vote(uint256)": "infinite"
					}
				},
				"methodIdentifiers": {
					"addCandidate(string)": "462e91ec",
					"changeOwner(address)": "a6f9dae1",
					"getCandidate(uint256)": "35b8e820",
					"getOwner()": "893d20e8",
					"getTotalCandidates()": "0deb56ab",
					"vote(uint256)": "0121b93f"
				}
			},
			"storageLayout": {
				"storage": [
					{
						"astId": 4,
						"contract": "contracts/VotingSystem.sol:VotingSystem",
						"label": "owner",
						"offset": 0,
						"slot": "0",
						"type": "t_address"
					},
					{
						"astId": 96,
						"contract": "contracts/VotingSystem.sol:VotingSystem",
						"label": "candidates",
						"offset": 0,
						"slot": "1",
						"type": "t_mapping(t_uint256,t_struct(Candidate)91_storage)"
					},
					{
						"astId": 100,
						"contract": "contracts/VotingSystem.sol:VotingSystem",
						"label": "voters",
						"offset": 0,
						"slot": "2",
						"type": "t_mapping(t_address,t_bool)"
					},
					{
						"astId": 102,
						"contract": "contracts/VotingSystem.sol:VotingSystem",
						"label": "nextCandidateId",
						"offset": 0,
						"slot": "3",
						"type": "t_uint256"
					}
				],
				"types": {
					"t_address": {
						"encoding": "inplace",
						"label": "address",
						"numberOfBytes": "20"
					},
					"t_bool": {
						"encoding": "inplace",
						"label": "bool",
						"numberOfBytes": "1"
					},
					"t_mapping(t_address,t_bool)": {
						"encoding": "mapping",
						"key": "t_address",
						"label": "mapping(address => bool)",
						"numberOfBytes": "32",
						"value": "t_bool"
					},
					"t_mapping(t_uint256,t_struct(Candidate)91_storage)": {
						"encoding": "mapping",
						"key": "t_uint256",
						"label": "mapping(uint256 => struct VotingSystem.Candidate)",
						"numberOfBytes": "32",
						"value": "t_struct(Candidate)91_storage"
					},
					"t_string_storage": {
						"encoding": "bytes",
						"label": "string",
						"numberOfBytes": "32"
					},
					"t_struct(Candidate)91_storage": {
						"encoding": "inplace",
						"label": "struct VotingSystem.Candidate",
						"members": [
							{
								"astId": 86,
								"contract": "contracts/VotingSystem.sol:VotingSystem",
								"label": "id",
								"offset": 0,
								"slot": "0",
								"type": "t_uint256"
							},
							{
								"astId": 88,
								"contract": "contracts/VotingSystem.sol:VotingSystem",
								"label": "name",
								"offset": 0,
								"slot": "1",
								"type": "t_string_storage"
							},
							{
								"astId": 90,
								"contract": "contracts/VotingSystem.sol:VotingSystem",
								"label": "voteCount",
								"offset": 0,
								"slot": "2",
								"type": "t_uint256"
							}
						],
						"numberOfBytes": "96"
					},
					"t_uint256": {
						"encoding": "inplace",
						"label": "uint256",
						"numberOfBytes": "32"
					}
				}
			},
			"userdoc": {
				"kind": "user",
				"methods": {},
				"version": 1
			}
		}
	}
}