{
	"contracts/Owner.sol": {
		"Owner": {
			"abi": [
				{
					"inputs": [],
					"stateMutability": "nonpayable",
					"type": "constructor"
				},
				{
					"anonymous": false,
					"inputs": [
						{
							"indexed": true,
							"internalType": "address",
							"name": "oldOwner",
							"type": "address"
						},
						{
							"indexed": true,
							"internalType": "address",
							"name": "newOwner",
							"type": "address"
						}
					],
					"name": "OwnerSet",
					"type": "event"
				},
				{
					"inputs": [
						{
							"internalType": "address",
							"name": "newOwner",
							"type": "address"
						}
					],
					"name": "changeOwner",
					"outputs": [],
					"stateMutability": "nonpayable",
					"type": "function"
				},
				{
					"inputs": [],
					"name": "getOwner",
					"outputs": [
						{
							"internalType": "address",
							"name": "",
							"type": "address"
						}
					],
					"stateMutability": "view",
					"type": "function"
				}
			],
			"devdoc": {
				"details": "This contract is all about who's the boss. Sets and lets you change the owner.",
				"kind": "dev",
				"methods": {
					"changeOwner(address)": {
						"details": "Change the boss! Only the current owner can transfer ownership.",
						"params": {
							"newOwner": "The address of the new boss."
						}
					},
					"constructor": {
						"details": "Constructor: Runs only once when the contract is born! Sets the person who deployed the contract as the first owner."
					},
					"getOwner()": {
						"details": "Who's the boss right now? Ask this function.",
						"returns": {
							"_0": "address The address of the current owner."
						}
					}
				},
				"title": "Owner",
				"version": 1
			},
			"evm": {
				"assembly": "    /* \"contracts/Owner.sol\":302:2319  contract Owner {... */\n  mstore(0x40, 0x80)\n    /* \"contracts/Owner.sol\":1163:1487  constructor() {... */\n  callvalue\n  dup1\n  iszero\n  tag_1\n  jumpi\n  0x00\n  dup1\n  revert\ntag_1:\n  pop\n    /* \"contracts/Owner.sol\":1336:1346  msg.sender */\n  caller\n    /* \"contracts/Owner.sol\":1328:1333  owner */\n  0x00\n  dup1\n    /* \"contracts/Owner.sol\":1328:1346  owner = msg.sender */\n  0x0100\n  exp\n  dup2\n  sload\n  dup2\n  0xffffffffffffffffffffffffffffffffffffffff\n  mul\n  not\n  and\n  swap1\n  dup4\n  0xffffffffffffffffffffffffffffffffffffffff\n  and\n  mul\n  or\n  swap1\n  sstore\n  pop\n    /* \"contracts/Owner.sol\":1423:1428  owner */\n  0x00\n  dup1\n  sload\n  swap1\n  0x0100\n  exp\n  swap1\n  div\n  0xffffffffffffffffffffffffffffffffffffffff\n  and\n    /* \"contracts/Owner.sol\":1402:1429  OwnerSet(address(0), owner) */\n  0xffffffffffffffffffffffffffffffffffffffff\n  and\n    /* \"contracts/Owner.sol\":1419:1420  0 */\n  0x00\n    /* \"contracts/Owner.sol\":1402:1429  OwnerSet(address(0), owner) */\n  0xffffffffffffffffffffffffffffffffffffffff\n  and\n  0x342827c97908e5e2f71151c08502a66d44b6f758e3ac2f1de95f02eb95f0a735\n  mload(0x40)\n  mload(0x40)\n  dup1\n  swap2\n  sub\n  swap1\n  log3\n    /* \"contracts/Owner.sol\":302:2319  contract Owner {... */\n  dataSize(sub_0)\n  dup1\n  dataOffset(sub_0)\n  0x00\n  codecopy\n  0x00\n  return\nstop\n\nsub_0: assembly {\n        /* \"contracts/Owner.sol\":302:2319  contract Owner {... */\n      mstore(0x40, 0x80)\n      callvalue\n      dup1\n      iszero\n      tag_1\n      jumpi\n      0x00\n      dup1\n      revert\n    tag_1:\n      pop\n      jumpi(tag_2, lt(calldatasize, 0x04))\n      shr(0xe0, calldataload(0x00))\n      dup1\n      0x893d20e8\n      eq\n      tag_3\n      jumpi\n      dup1\n      0xa6f9dae1\n      eq\n      tag_4\n      jumpi\n    tag_2:\n      0x00\n      dup1\n      revert\n        /* \"contracts/Owner.sol\":2186:2317  function getOwner() external view returns (address) {... */\n    tag_3:\n      tag_5\n      tag_6\n      jump\t// in\n    tag_5:\n      mload(0x40)\n      tag_7\n      swap2\n      swap1\n      tag_8\n      jump\t// in\n    tag_7:\n      mload(0x40)\n      dup1\n      swap2\n      sub\n      swap1\n      return\n        /* \"contracts/Owner.sol\":1637:2050  function changeOwner(address newOwner) public isOwner { // Using the 'isOwner' VIP pass here!... */\n    tag_4:\n      tag_9\n      0x04\n      dup1\n      calldatasize\n      sub\n      dup2\n      add\n      swap1\n      tag_10\n      swap2\n      swap1\n      tag_11\n      jump\t// in\n    tag_10:\n      tag_12\n      jump\t// in\n    tag_9:\n      stop\n        /* \"contracts/Owner.sol\":2186:2317  function getOwner() external view returns (address) {... */\n    tag_6:\n        /* \"contracts/Owner.sol\":2229:2236  address */\n      0x00\n        /* \"contracts/Owner.sol\":2255:2260  owner */\n      dup1\n      0x00\n      swap1\n      sload\n      swap1\n      0x0100\n      exp\n      swap1\n      div\n      0xffffffffffffffffffffffffffffffffffffffff\n      and\n        /* \"contracts/Owner.sol\":2248:2260  return owner */\n      swap1\n      pop\n        /* \"contracts/Owner.sol\":2186:2317  function getOwner() external view returns (address) {... */\n      swap1\n      jump\t// out\n        /* \"contracts/Owner.sol\":1637:2050  function changeOwner(address newOwner) public isOwner { // Using the 'isOwner' VIP pass here!... */\n    tag_12:\n        /* \"contracts/Owner.sol\":880:885  owner */\n      0x00\n      dup1\n      sload\n      swap1\n      0x0100\n      exp\n      swap1\n      div\n      0xffffffffffffffffffffffffffffffffffffffff\n      and\n        /* \"contracts/Owner.sol\":866:885  msg.sender == owner */\n      0xffffffffffffffffffffffffffffffffffffffff\n      and\n        /* \"contracts/Owner.sol\":866:876  msg.sender */\n      caller\n        /* \"contracts/Owner.sol\":866:885  msg.sender == owner */\n      0xffffffffffffffffffffffffffffffffffffffff\n      and\n      eq\n        /* \"contracts/Owner.sol\":858:916  require(msg.sender == owner, \"Nah, you're not the owner.\") */\n      tag_15\n      jumpi\n      mload(0x40)\n      0x08c379a000000000000000000000000000000000000000000000000000000000\n      dup2\n      mstore\n      0x04\n      add\n      tag_16\n      swap1\n      tag_17\n      jump\t// in\n    tag_16:\n      mload(0x40)\n      dup1\n      swap2\n      sub\n      swap1\n      revert\n    tag_15:\n        /* \"contracts/Owner.sol\":1869:1870  0 */\n      0x00\n        /* \"contracts/Owner.sol\":1849:1871  newOwner != address(0) */\n      0xffffffffffffffffffffffffffffffffffffffff\n      and\n        /* \"contracts/Owner.sol\":1849:1857  newOwner */\n      dup2\n        /* \"contracts/Owner.sol\":1849:1871  newOwner != address(0) */\n      0xffffffffffffffffffffffffffffffffffffffff\n      and\n      eq\n      iszero\n        /* \"contracts/Owner.sol\":1841:1926  require(newOwner != address(0), \"Can't transfer ownership to the zero address, fam.\") */\n      tag_19\n      jumpi\n      mload(0x40)\n      0x08c379a000000000000000000000000000000000000000000000000000000000\n      dup2\n      mstore\n      0x04\n      add\n      tag_20\n      swap1\n      tag_21\n      jump\t// in\n    tag_20:\n      mload(0x40)\n      dup1\n      swap2\n      sub\n      swap1\n      revert\n    tag_19:\n        /* \"contracts/Owner.sol\":1957:1965  newOwner */\n      dup1\n        /* \"contracts/Owner.sol\":1941:1966  OwnerSet(owner, newOwner) */\n      0xffffffffffffffffffffffffffffffffffffffff\n      and\n        /* \"contracts/Owner.sol\":1950:1955  owner */\n      0x00\n      dup1\n      sload\n      swap1\n      0x0100\n      exp\n      swap1\n      div\n      0xffffffffffffffffffffffffffffffffffffffff\n      and\n        /* \"contracts/Owner.sol\":1941:1966  OwnerSet(owner, newOwner) */\n      0xffffffffffffffffffffffffffffffffffffffff\n      and\n      0x342827c97908e5e2f71151c08502a66d44b6f758e3ac2f1de95f02eb95f0a735\n      mload(0x40)\n      mload(0x40)\n      dup1\n      swap2\n      sub\n      swap1\n      log3\n        /* \"contracts/Owner.sol\":2008:2016  newOwner */\n      dup1\n        /* \"contracts/Owner.sol\":2000:2005  owner */\n      0x00\n      dup1\n        /* \"contracts/Owner.sol\":2000:2016  owner = newOwner */\n      0x0100\n      exp\n      dup2\n      sload\n      dup2\n      0xffffffffffffffffffffffffffffffffffffffff\n      mul\n      not\n      and\n      swap1\n      dup4\n      0xffffffffffffffffffffffffffffffffffffffff\n      and\n      mul\n      or\n      swap1\n      sstore\n      pop\n        /* \"contracts/Owner.sol\":1637:2050  function changeOwner(address newOwner) public isOwner { // Using the 'isOwner' VIP pass here!... */\n      pop\n      jump\t// out\n        /* \"#utility.yul\":7:146   */\n    tag_23:\n      0x00\n        /* \"#utility.yul\":91:97   */\n      dup2\n        /* \"#utility.yul\":78:98   */\n      calldataload\n        /* \"#utility.yul\":69:98   */\n      swap1\n      pop\n        /* \"#utility.yul\":107:140   */\n      tag_25\n        /* \"#utility.yul\":134:139   */\n      dup2\n        /* \"#utility.yul\":107:140   */\n      tag_26\n      jump\t// in\n    tag_25:\n        /* \"#utility.yul\":59:146   */\n      swap3\n      swap2\n      pop\n      pop\n      jump\t// out\n        /* \"#utility.yul\":152:414   */\n    tag_11:\n      0x00\n        /* \"#utility.yul\":260:262   */\n      0x20\n        /* \"#utility.yul\":248:257   */\n      dup3\n        /* \"#utility.yul\":239:246   */\n      dup5\n        /* \"#utility.yul\":235:258   */\n      sub\n        /* \"#utility.yul\":231:263   */\n      slt\n        /* \"#utility.yul\":228:230   */\n      iszero\n      tag_28\n      jumpi\n        /* \"#utility.yul\":276:277   */\n      0x00\n        /* \"#utility.yul\":273:274   */\n      dup1\n        /* \"#utility.yul\":266:278   */\n      revert\n        /* \"#utility.yul\":228:230   */\n    tag_28:\n        /* \"#utility.yul\":319:320   */\n      0x00\n        /* \"#utility.yul\":344:397   */\n      tag_29\n        /* \"#utility.yul\":389:396   */\n      dup5\n        /* \"#utility.yul\":380:386   */\n      dup3\n        /* \"#utility.yul\":369:378   */\n      dup6\n        /* \"#utility.yul\":365:387   */\n      add\n        /* \"#utility.yul\":344:397   */\n      tag_23\n      jump\t// in\n    tag_29:\n        /* \"#utility.yul\":334:397   */\n      swap2\n      pop\n        /* \"#utility.yul\":290:407   */\n      pop\n        /* \"#utility.yul\":218:414   */\n      swap3\n      swap2\n      pop\n      pop\n      jump\t// out\n        /* \"#utility.yul\":420:538   */\n    tag_30:\n        /* \"#utility.yul\":507:531   */\n      tag_32\n        /* \"#utility.yul\":525:530   */\n      dup2\n        /* \"#utility.yul\":507:531   */\n      tag_33\n      jump\t// in\n    tag_32:\n        /* \"#utility.yul\":502:505   */\n      dup3\n        /* \"#utility.yul\":495:532   */\n      mstore\n        /* \"#utility.yul\":485:538   */\n      pop\n      pop\n      jump\t// out\n        /* \"#utility.yul\":544:926   */\n    tag_34:\n      0x00\n        /* \"#utility.yul\":707:774   */\n      tag_36\n        /* \"#utility.yul\":771:773   */\n      0x32\n        /* \"#utility.yul\":766:769   */\n      dup4\n        /* \"#utility.yul\":707:774   */\n      tag_37\n      jump\t// in\n    tag_36:\n        /* \"#utility.yul\":700:774   */\n      swap2\n      pop\n        /* \"#utility.yul\":804:838   */\n      0x43616e2774207472616e73666572206f776e65727368697020746f2074686520\n        /* \"#utility.yul\":800:801   */\n      0x00\n        /* \"#utility.yul\":795:798   */\n      dup4\n        /* \"#utility.yul\":791:802   */\n      add\n        /* \"#utility.yul\":784:839   */\n      mstore\n        /* \"#utility.yul\":870:890   */\n      0x7a65726f20616464726573732c2066616d2e0000000000000000000000000000\n        /* \"#utility.yul\":865:867   */\n      0x20\n        /* \"#utility.yul\":860:863   */\n      dup4\n        /* \"#utility.yul\":856:868   */\n      add\n        /* \"#utility.yul\":849:891   */\n      mstore\n        /* \"#utility.yul\":917:919   */\n      0x40\n        /* \"#utility.yul\":912:915   */\n      dup3\n        /* \"#utility.yul\":908:920   */\n      add\n        /* \"#utility.yul\":901:920   */\n      swap1\n      pop\n        /* \"#utility.yul\":690:926   */\n      swap2\n      swap1\n      pop\n      jump\t// out\n        /* \"#utility.yul\":932:1256   */\n    tag_38:\n      0x00\n        /* \"#utility.yul\":1095:1162   */\n      tag_40\n        /* \"#utility.yul\":1159:1161   */\n      0x1a\n        /* \"#utility.yul\":1154:1157   */\n      dup4\n        /* \"#utility.yul\":1095:1162   */\n      tag_37\n      jump\t// in\n    tag_40:\n        /* \"#utility.yul\":1088:1162   */\n      swap2\n      pop\n        /* \"#utility.yul\":1192:1220   */\n      0x4e61682c20796f75277265206e6f7420746865206f776e65722e000000000000\n        /* \"#utility.yul\":1188:1189   */\n      0x00\n        /* \"#utility.yul\":1183:1186   */\n      dup4\n        /* \"#utility.yul\":1179:1190   */\n      add\n        /* \"#utility.yul\":1172:1221   */\n      mstore\n        /* \"#utility.yul\":1247:1249   */\n      0x20\n        /* \"#utility.yul\":1242:1245   */\n      dup3\n        /* \"#utility.yul\":1238:1250   */\n      add\n        /* \"#utility.yul\":1231:1250   */\n      swap1\n      pop\n        /* \"#utility.yul\":1078:1256   */\n      swap2\n      swap1\n      pop\n      jump\t// out\n        /* \"#utility.yul\":1262:1484   */\n    tag_8:\n      0x00\n        /* \"#utility.yul\":1393:1395   */\n      0x20\n        /* \"#utility.yul\":1382:1391   */\n      dup3\n        /* \"#utility.yul\":1378:1396   */\n      add\n        /* \"#utility.yul\":1370:1396   */\n      swap1\n      pop\n        /* \"#utility.yul\":1406:1477   */\n      tag_42\n        /* \"#utility.yul\":1474:1475   */\n      0x00\n        /* \"#utility.yul\":1463:1472   */\n      dup4\n        /* \"#utility.yul\":1459:1476   */\n      add\n        /* \"#utility.yul\":1450:1456   */\n      dup5\n        /* \"#utility.yul\":1406:1477   */\n      tag_30\n      jump\t// in\n    tag_42:\n        /* \"#utility.yul\":1360:1484   */\n      swap3\n      swap2\n      pop\n      pop\n      jump\t// out\n        /* \"#utility.yul\":1490:1909   */\n    tag_21:\n      0x00\n        /* \"#utility.yul\":1694:1696   */\n      0x20\n        /* \"#utility.yul\":1683:1692   */\n      dup3\n        /* \"#utility.yul\":1679:1697   */\n      add\n        /* \"#utility.yul\":1671:1697   */\n      swap1\n      pop\n        /* \"#utility.yul\":1743:1752   */\n      dup2\n        /* \"#utility.yul\":1737:1741   */\n      dup2\n        /* \"#utility.yul\":1733:1753   */\n      sub\n        /* \"#utility.yul\":1729:1730   */\n      0x00\n        /* \"#utility.yul\":1718:1727   */\n      dup4\n        /* \"#utility.yul\":1714:1731   */\n      add\n        /* \"#utility.yul\":1707:1754   */\n      mstore\n        /* \"#utility.yul\":1771:1902   */\n      tag_44\n        /* \"#utility.yul\":1897:1901   */\n      dup2\n        /* \"#utility.yul\":1771:1902   */\n      tag_34\n      jump\t// in\n    tag_44:\n        /* \"#utility.yul\":1763:1902   */\n      swap1\n      pop\n        /* \"#utility.yul\":1661:1909   */\n      swap2\n      swap1\n      pop\n      jump\t// out\n        /* \"#utility.yul\":1915:2334   */\n    tag_17:\n      0x00\n        /* \"#utility.yul\":2119:2121   */\n      0x20\n        /* \"#utility.yul\":2108:2117   */\n      dup3\n        /* \"#utility.yul\":2104:2122   */\n      add\n        /* \"#utility.yul\":2096:2122   */\n      swap1\n      pop\n        /* \"#utility.yul\":2168:2177   */\n      dup2\n        /* \"#utility.yul\":2162:2166   */\n      dup2\n        /* \"#utility.yul\":2158:2178   */\n      sub\n        /* \"#utility.yul\":2154:2155   */\n      0x00\n        /* \"#utility.yul\":2143:2152   */\n      dup4\n        /* \"#utility.yul\":2139:2156   */\n      add\n        /* \"#utility.yul\":2132:2179   */\n      mstore\n        /* \"#utility.yul\":2196:2327   */\n      tag_46\n        /* \"#utility.yul\":2322:2326   */\n      dup2\n        /* \"#utility.yul\":2196:2327   */\n      tag_38\n      jump\t// in\n    tag_46:\n        /* \"#utility.yul\":2188:2327   */\n      swap1\n      pop\n        /* \"#utility.yul\":2086:2334   */\n      swap2\n      swap1\n      pop\n      jump\t// out\n        /* \"#utility.yul\":2340:2509   */\n    tag_37:\n      0x00\n        /* \"#utility.yul\":2458:2464   */\n      dup3\n        /* \"#utility.yul\":2453:2456   */\n      dup3\n        /* \"#utility.yul\":2446:2465   */\n      mstore\n        /* \"#utility.yul\":2498:2502   */\n      0x20\n        /* \"#utility.yul\":2493:2496   */\n      dup3\n        /* \"#utility.yul\":2489:2503   */\n      add\n        /* \"#utility.yul\":2474:2503   */\n      swap1\n      pop\n        /* \"#utility.yul\":2436:2509   */\n      swap3\n      swap2\n      pop\n      pop\n      jump\t// out\n        /* \"#utility.yul\":2515:2611   */\n    tag_33:\n      0x00\n        /* \"#utility.yul\":2581:2605   */\n      tag_49\n        /* \"#utility.yul\":2599:2604   */\n      dup3\n        /* \"#utility.yul\":2581:2605   */\n      tag_50\n      jump\t// in\n    tag_49:\n        /* \"#utility.yul\":2570:2605   */\n      swap1\n      pop\n        /* \"#utility.yul\":2560:2611   */\n      swap2\n      swap1\n      pop\n      jump\t// out\n        /* \"#utility.yul\":2617:2743   */\n    tag_50:\n      0x00\n        /* \"#utility.yul\":2694:2736   */\n      0xffffffffffffffffffffffffffffffffffffffff\n        /* \"#utility.yul\":2687:2692   */\n      dup3\n        /* \"#utility.yul\":2683:2737   */\n      and\n        /* \"#utility.yul\":2672:2737   */\n      swap1\n      pop\n        /* \"#utility.yul\":2662:2743   */\n      swap2\n      swap1\n      pop\n      jump\t// out\n        /* \"#utility.yul\":2749:2871   */\n    tag_26:\n        /* \"#utility.yul\":2822:2846   */\n      tag_53\n        /* \"#utility.yul\":2840:2845   */\n      dup2\n        /* \"#utility.yul\":2822:2846   */\n      tag_33\n      jump\t// in\n    tag_53:\n        /* \"#utility.yul\":2815:2820   */\n      dup2\n        /* \"#utility.yul\":2812:2847   */\n      eq\n        /* \"#utility.yul\":2802:2804   */\n      tag_54\n      jumpi\n        /* \"#utility.yul\":2861:2862   */\n      0x00\n        /* \"#utility.yul\":2858:2859   */\n      dup1\n        /* \"#utility.yul\":2851:2863   */\n      revert\n        /* \"#utility.yul\":2802:2804   */\n    tag_54:\n        /* \"#utility.yul\":2792:2871   */\n      pop\n      jump\t// out\n\n    auxdata: 0xa26469706673582212206869baab2cf75739a53a71814ab1f383fa5ba0275a99ed08df486c8c4e249a6a64736f6c63430008000033\n}\n",
				"bytecode": {
					"linkReferences": {},
					"object": "608060405234801561001057600080fd5b50336000806101000a81548173ffffffffffffffffffffffffffffffffffffffff021916908373ffffffffffffffffffffffffffffffffffffffff16021790555060008054906101000a900473ffffffffffffffffffffffffffffffffffffffff1673ffffffffffffffffffffffffffffffffffffffff16600073ffffffffffffffffffffffffffffffffffffffff167f342827c97908e5e2f71151c08502a66d44b6f758e3ac2f1de95f02eb95f0a73560405160405180910390a3610437806100db6000396000f3fe608060405234801561001057600080fd5b50600436106100365760003560e01c8063893d20e81461003b578063a6f9dae114610059575b600080fd5b610043610075565b604051610050919061034c565b60405180910390f35b610073600480360381019061006e919061026e565b61009e565b005b60008060009054906101000a900473ffffffffffffffffffffffffffffffffffffffff16905090565b60008054906101000a900473ffffffffffffffffffffffffffffffffffffffff1673ffffffffffffffffffffffffffffffffffffffff163373ffffffffffffffffffffffffffffffffffffffff161461012c576040517f08c379a000000000000000000000000000000000000000000000000000000000815260040161012390610387565b60405180910390fd5b600073ffffffffffffffffffffffffffffffffffffffff168173ffffffffffffffffffffffffffffffffffffffff16141561019c576040517f08c379a000000000000000000000000000000000000000000000000000000000815260040161019390610367565b60405180910390fd5b8073ffffffffffffffffffffffffffffffffffffffff1660008054906101000a900473ffffffffffffffffffffffffffffffffffffffff1673ffffffffffffffffffffffffffffffffffffffff167f342827c97908e5e2f71151c08502a66d44b6f758e3ac2f1de95f02eb95f0a73560405160405180910390a3806000806101000a81548173ffffffffffffffffffffffffffffffffffffffff021916908373ffffffffffffffffffffffffffffffffffffffff16021790555050565b600081359050610268816103ea565b92915050565b60006020828403121561028057600080fd5b600061028e84828501610259565b91505092915050565b6102a0816103b8565b82525050565b60006102b36032836103a7565b91507f43616e2774207472616e73666572206f776e65727368697020746f207468652060008301527f7a65726f20616464726573732c2066616d2e00000000000000000000000000006020830152604082019050919050565b6000610319601a836103a7565b91507f4e61682c20796f75277265206e6f7420746865206f776e65722e0000000000006000830152602082019050919050565b60006020820190506103616000830184610297565b92915050565b60006020820190508181036000830152610380816102a6565b9050919050565b600060208201905081810360008301526103a08161030c565b9050919050565b600082825260208201905092915050565b60006103c3826103ca565b9050919050565b600073ffffffffffffffffffffffffffffffffffffffff82169050919050565b6103f3816103b8565b81146103fe57600080fd5b5056fea26469706673582212206869baab2cf75739a53a71814ab1f383fa5ba0275a99ed08df486c8c4e249a6a64736f6c63430008000033",
					"opcodes": "PUSH1 0x80 PUSH1 0x40 MSTORE CALLVALUE DUP1 ISZERO PUSH2 0x10 JUMPI PUSH1 0x0 DUP1 REVERT JUMPDEST POP CALLER PUSH1 0x0 DUP1 PUSH2 0x100 EXP DUP2 SLOAD DUP2 PUSH20 0xFFFFFFFFFFFFFFFFFFFFFFFFFFFFFFFFFFFFFFFF MUL NOT AND SWAP1 DUP4 PUSH20 0xFFFFFFFFFFFFFFFFFFFFFFFFFFFFFFFFFFFFFFFF AND MUL OR SWAP1 SSTORE POP PUSH1 0x0 DUP1 SLOAD SWAP1 PUSH2 0x100 EXP SWAP1 DIV PUSH20 0xFFFFFFFFFFFFFFFFFFFFFFFFFFFFFFFFFFFFFFFF AND PUSH20 0xFFFFFFFFFFFFFFFFFFFFFFFFFFFFFFFFFFFFFFFF AND PUSH1 0x0 PUSH20 0xFFFFFFFFFFFFFFFFFFFFFFFFFFFFFFFFFFFFFFFF AND PUSH32 0x342827C97908E5E2F71151C08502A66D44B6F758E3AC2F1DE95F02EB95F0A735 PUSH1 0x40 MLOAD PUSH1 0x40 MLOAD DUP1 SWAP2 SUB SWAP1 LOG3 PUSH2 0x437 DUP1 PUSH2 0xDB PUSH1 0x0 CODECOPY PUSH1 0x0 RETURN INVALID PUSH1 0x80 PUSH1 0x40 MSTORE CALLVALUE DUP1 ISZERO PUSH2 0x10 JUMPI PUSH1 0x0 DUP1 REVERT JUMPDEST POP PUSH1 0x4 CALLDATASIZE LT PUSH2 0x36 JUMPI PUSH1 0x0 CALLDATALOAD PUSH1 0xE0 SHR DUP1 PUSH4 0x893D20E8 EQ PUSH2 0x3B JUMPI DUP1 PUSH4 0xA6F9DAE1 EQ PUSH2 0x59 JUMPI JUMPDEST PUSH1 0x0 DUP1 REVERT JUMPDEST PUSH2 0x43 PUSH2 0x75 JUMP JUMPDEST PUSH1 0x40 MLOAD PUSH2 0x50 SWAP2 SWAP1 PUSH2 0x34C JUMP JUMPDEST PUSH1 0x40 MLOAD DUP1 SWAP2 SUB SWAP1 RETURN JUMPDEST PUSH2 0x73 PUSH1 0x4 DUP1 CALLDATASIZE SUB DUP2 ADD SWAP1 PUSH2 0x6E SWAP2 SWAP1 PUSH2 0x26E JUMP JUMPDEST PUSH2 0x9E JUMP JUMPDEST STOP JUMPDEST PUSH1 0x0 DUP1 PUSH1 0x0 SWAP1 SLOAD SWAP1 PUSH2 0x100 EXP SWAP1 DIV PUSH20 0xFFFFFFFFFFFFFFFFFFFFFFFFFFFFFFFFFFFFFFFF AND SWAP1 POP SWAP1 JUMP JUMPDEST PUSH1 0x0 DUP1 SLOAD SWAP1 PUSH2 0x100 EXP SWAP1 DIV PUSH20 0xFFFFFFFFFFFFFFFFFFFFFFFFFFFFFFFFFFFFFFFF AND PUSH20 0xFFFFFFFFFFFFFFFFFFFFFFFFFFFFFFFFFFFFFFFF AND CALLER PUSH20 0xFFFFFFFFFFFFFFFFFFFFFFFFFFFFFFFFFFFFFFFF AND EQ PUSH2 0x12C JUMPI PUSH1 0x40 MLOAD PUSH32 0x8C379A000000000000000000000000000000000000000000000000000000000 DUP2 MSTORE PUSH1 0x4 ADD PUSH2 0x123 SWAP1 PUSH2 0x387 JUMP JUMPDEST PUSH1 0x40 MLOAD DUP1 SWAP2 SUB SWAP1 REVERT JUMPDEST PUSH1 0x0 PUSH20 0xFFFFFFFFFFFFFFFFFFFFFFFFFFFFFFFFFFFFFFFF AND DUP2 PUSH20 0xFFFFFFFFFFFFFFFFFFFFFFFFFFFFFFFFFFFFFFFF AND EQ ISZERO PUSH2 0x19C JUMPI PUSH1 0x40 MLOAD PUSH32 0x8C379A000000000000000000000000000000000000000000000000000000000 DUP2 MSTORE PUSH1 0x4 ADD PUSH2 0x193 SWAP1 PUSH2 0x367 JUMP JUMPDEST PUSH1 0x40 MLOAD DUP1 SWAP2 SUB SWAP1 REVERT JUMPDEST DUP1 PUSH20 0xFFFFFFFFFFFFFFFFFFFFFFFFFFFFFFFFFFFFFFFF AND PUSH1 0x0 DUP1 SLOAD SWAP1 PUSH2 0x100 EXP SWAP1 DIV PUSH20 0xFFFFFFFFFFFFFFFFFFFFFFFFFFFFFFFFFFFFFFFF AND PUSH20 0xFFFFFFFFFFFFFFFFFFFFFFFFFFFFFFFFFFFFFFFF AND PUSH32 0x342827C97908E5E2F71151C08502A66D44B6F758E3AC2F1DE95F02EB95F0A735 PUSH1 0x40 MLOAD PUSH1 0x40 MLOAD DUP1 SWAP2 SUB SWAP1 LOG3 DUP1 PUSH1 0x0 DUP1 PUSH2 0x100 EXP DUP2 SLOAD DUP2 PUSH20 0xFFFFFFFFFFFFFFFFFFFFFFFFFFFFFFFFFFFFFFFF MUL NOT AND SWAP1 DUP4 PUSH20 0xFFFFFFFFFFFFFFFFFFFFFFFFFFFFFFFFFFFFFFFF AND MUL OR SWAP1 SSTORE POP POP JUMP JUMPDEST PUSH1 0x0 DUP2 CALLDATALOAD SWAP1 POP PUSH2 0x268 DUP2 PUSH2 0x3EA JUMP JUMPDEST SWAP3 SWAP2 POP POP JUMP JUMPDEST PUSH1 0x0 PUSH1 0x20 DUP3 DUP5 SUB SLT ISZERO PUSH2 0x280 JUMPI PUSH1 0x0 DUP1 REVERT JUMPDEST PUSH1 0x0 PUSH2 0x28E DUP5 DUP3 DUP6 ADD PUSH2 0x259 JUMP JUMPDEST SWAP2 POP POP SWAP3 SWAP2 POP POP JUMP JUMPDEST PUSH2 0x2A0 DUP2 PUSH2 0x3B8 JUMP JUMPDEST DUP3 MSTORE POP POP JUMP JUMPDEST PUSH1 0x0 PUSH2 0x2B3 PUSH1 0x32 DUP4 PUSH2 0x3A7 JUMP JUMPDEST SWAP2 POP PUSH32 0x43616E2774207472616E73666572206F776E65727368697020746F2074686520 PUSH1 0x0 DUP4 ADD MSTORE PUSH32 0x7A65726F20616464726573732C2066616D2E0000000000000000000000000000 PUSH1 0x20 DUP4 ADD MSTORE PUSH1 0x40 DUP3 ADD SWAP1 POP SWAP2 SWAP1 POP JUMP JUMPDEST PUSH1 0x0 PUSH2 0x319 PUSH1 0x1A DUP4 PUSH2 0x3A7 JUMP JUMPDEST SWAP2 POP PUSH32 0x4E61682C20796F75277265206E6F7420746865206F776E65722E000000000000 PUSH1 0x0 DUP4 ADD MSTORE PUSH1 0x20 DUP3 ADD SWAP1 POP SWAP2 SWAP1 POP JUMP JUMPDEST PUSH1 0x0 PUSH1 0x20 DUP3 ADD SWAP1 POP PUSH2 0x361 PUSH1 0x0 DUP4 ADD DUP5 PUSH2 0x297 JUMP JUMPDEST SWAP3 SWAP2 POP POP JUMP JUMPDEST PUSH1 0x0 PUSH1 0x20 DUP3 ADD SWAP1 POP DUP2 DUP2 SUB PUSH1 0x0 DUP4 ADD MSTORE PUSH2 0x380 DUP2 PUSH2 0x2A6 JUMP JUMPDEST SWAP1 POP SWAP2 SWAP1 POP JUMP JUMPDEST PUSH1 0x0 PUSH1 0x20 DUP3 ADD SWAP1 POP DUP2 DUP2 SUB PUSH1 0x0 DUP4 ADD MSTORE PUSH2 0x3A0 DUP2 PUSH2 0x30C JUMP JUMPDEST SWAP1 POP SWAP2 SWAP1 POP JUMP JUMPDEST PUSH1 0x0 DUP3 DUP3 MSTORE PUSH1 0x20 DUP3 ADD SWAP1 POP SWAP3 SWAP2 POP POP JUMP JUMPDEST PUSH1 0x0 PUSH2 0x3C3 DUP3 PUSH2 0x3CA JUMP JUMPDEST SWAP1 POP SWAP2 SWAP1 POP JUMP JUMPDEST PUSH1 0x0 PUSH20 0xFFFFFFFFFFFFFFFFFFFFFFFFFFFFFFFFFFFFFFFF DUP3 AND SWAP1 POP SWAP2 SWAP1 POP JUMP JUMPDEST PUSH2 0x3F3 DUP2 PUSH2 0x3B8 JUMP JUMPDEST DUP2 EQ PUSH2 0x3FE JUMPI PUSH1 0x0 DUP1 REVERT JUMPDEST POP JUMP INVALID LOG2 PUSH5 0x6970667358 0x22 SLT KECCAK256 PUSH9 0x69BAAB2CF75739A53A PUSH18 0x814AB1F383FA5BA0275A99ED08DF486C8C4E 0x24 SWAP11 PUSH11 0x64736F6C63430008000033 "
				},
				"gasEstimates": {
					"creation": {
						"codeDepositCost": "215800",
						"executionCost": "23501",
						"totalCost": "239301"
					},
					"external": {
						"changeOwner(address)": "24605",
						"getOwner()": "1200"
					}
				},
				"methodIdentifiers": {
					"changeOwner(address)": "a6f9dae1",
					"getOwner()": "893d20e8"
				}
			},
			"storageLayout": {
				"storage": [
					{
						"astId": 4,
						"contract": "contracts/Owner.sol:Owner",
						"label": "owner",
						"offset": 0,
						"slot": "0",
						"type": "t_address"
					}
				],
				"types": {
					"t_address": {
						"encoding": "inplace",
						"label": "address",
						"numberOfBytes": "20"
					}
				}
			},
			"userdoc": {
				"kind": "user",
				"methods": {},
				"version": 1
			}
		}
	}
}